{
  "_format": "hh-sol-artifact-1",
  "contractName": "LottoTickets",
  "sourceName": "contracts/LotoTickets.sol",
  "abi": [
    {
      "inputs": [
        {
          "internalType": "string",
          "name": "_initBaseURI",
          "type": "string"
        }
      ],
      "stateMutability": "nonpayable",
      "type": "constructor"
    },
    {
      "inputs": [],
      "name": "ApprovalCallerNotOwnerNorApproved",
      "type": "error"
    },
    {
      "inputs": [],
      "name": "ApprovalQueryForNonexistentToken",
      "type": "error"
    },
    {
      "inputs": [],
      "name": "BalanceQueryForZeroAddress",
      "type": "error"
    },
    {
      "inputs": [],
      "name": "MintERC2309QuantityExceedsLimit",
      "type": "error"
    },
    {
      "inputs": [],
      "name": "MintToZeroAddress",
      "type": "error"
    },
    {
      "inputs": [],
      "name": "MintZeroQuantity",
      "type": "error"
    },
    {
      "inputs": [],
      "name": "OwnerQueryForNonexistentToken",
      "type": "error"
    },
    {
      "inputs": [],
      "name": "OwnershipNotInitializedForExtraData",
      "type": "error"
    },
    {
      "inputs": [],
      "name": "TransferCallerNotOwnerNorApproved",
      "type": "error"
    },
    {
      "inputs": [],
      "name": "TransferFromIncorrectOwner",
      "type": "error"
    },
    {
      "inputs": [],
      "name": "TransferToNonERC721ReceiverImplementer",
      "type": "error"
    },
    {
      "inputs": [],
      "name": "TransferToZeroAddress",
      "type": "error"
    },
    {
      "inputs": [],
      "name": "URIQueryForNonexistentToken",
      "type": "error"
    },
    {
      "anonymous": false,
      "inputs": [
        {
          "indexed": true,
          "internalType": "address",
          "name": "owner",
          "type": "address"
        },
        {
          "indexed": true,
          "internalType": "address",
          "name": "approved",
          "type": "address"
        },
        {
          "indexed": true,
          "internalType": "uint256",
          "name": "tokenId",
          "type": "uint256"
        }
      ],
      "name": "Approval",
      "type": "event"
    },
    {
      "anonymous": false,
      "inputs": [
        {
          "indexed": true,
          "internalType": "address",
          "name": "owner",
          "type": "address"
        },
        {
          "indexed": true,
          "internalType": "address",
          "name": "operator",
          "type": "address"
        },
        {
          "indexed": false,
          "internalType": "bool",
          "name": "approved",
          "type": "bool"
        }
      ],
      "name": "ApprovalForAll",
      "type": "event"
    },
    {
      "anonymous": false,
      "inputs": [
        {
          "indexed": true,
          "internalType": "uint256",
          "name": "fromTokenId",
          "type": "uint256"
        },
        {
          "indexed": false,
          "internalType": "uint256",
          "name": "toTokenId",
          "type": "uint256"
        },
        {
          "indexed": true,
          "internalType": "address",
          "name": "from",
          "type": "address"
        },
        {
          "indexed": true,
          "internalType": "address",
          "name": "to",
          "type": "address"
        }
      ],
      "name": "ConsecutiveTransfer",
      "type": "event"
    },
    {
      "anonymous": false,
      "inputs": [
        {
          "indexed": true,
          "internalType": "address",
          "name": "previousOwner",
          "type": "address"
        },
        {
          "indexed": true,
          "internalType": "address",
          "name": "newOwner",
          "type": "address"
        }
      ],
      "name": "OwnershipTransferred",
      "type": "event"
    },
    {
      "anonymous": false,
      "inputs": [
        {
          "indexed": true,
          "internalType": "address",
          "name": "from",
          "type": "address"
        },
        {
          "indexed": true,
          "internalType": "address",
          "name": "to",
          "type": "address"
        },
        {
          "indexed": true,
          "internalType": "uint256",
          "name": "tokenId",
          "type": "uint256"
        }
      ],
      "name": "Transfer",
      "type": "event"
    },
    {
      "inputs": [
        {
          "internalType": "address",
          "name": "to",
          "type": "address"
        },
        {
          "internalType": "uint256",
          "name": "tokenId",
          "type": "uint256"
        }
      ],
      "name": "approve",
      "outputs": [],
      "stateMutability": "payable",
      "type": "function"
    },
    {
      "inputs": [
        {
          "internalType": "address",
          "name": "owner",
          "type": "address"
        }
      ],
      "name": "balanceOf",
      "outputs": [
        {
          "internalType": "uint256",
          "name": "",
          "type": "uint256"
        }
      ],
      "stateMutability": "view",
      "type": "function"
    },
    {
      "inputs": [],
      "name": "baseExtension",
      "outputs": [
        {
          "internalType": "string",
          "name": "",
          "type": "string"
        }
      ],
      "stateMutability": "view",
      "type": "function"
    },
    {
      "inputs": [],
      "name": "baseURI",
      "outputs": [
        {
          "internalType": "string",
          "name": "",
          "type": "string"
        }
      ],
      "stateMutability": "view",
      "type": "function"
    },
    {
      "inputs": [
        {
          "internalType": "uint256",
          "name": "tokenId",
          "type": "uint256"
        }
      ],
      "name": "burnOneToken",
      "outputs": [],
      "stateMutability": "payable",
      "type": "function"
    },
    {
      "inputs": [
        {
          "internalType": "uint256",
          "name": "tokenId",
          "type": "uint256"
        }
      ],
      "name": "getApproved",
      "outputs": [
        {
          "internalType": "address",
          "name": "",
          "type": "address"
        }
      ],
      "stateMutability": "view",
      "type": "function"
    },
    {
      "inputs": [],
      "name": "getMintCost",
      "outputs": [
        {
          "internalType": "uint256",
          "name": "",
          "type": "uint256"
        }
      ],
      "stateMutability": "view",
      "type": "function"
    },
    {
      "inputs": [],
      "name": "getTotalMinted",
      "outputs": [
        {
          "internalType": "uint256",
          "name": "",
          "type": "uint256"
        }
      ],
      "stateMutability": "view",
      "type": "function"
    },
    {
      "inputs": [
        {
          "internalType": "address",
          "name": "owner",
          "type": "address"
        },
        {
          "internalType": "address",
          "name": "operator",
          "type": "address"
        }
      ],
      "name": "isApprovedForAll",
      "outputs": [
        {
          "internalType": "bool",
          "name": "",
          "type": "bool"
        }
      ],
      "stateMutability": "view",
      "type": "function"
    },
    {
      "inputs": [
        {
          "internalType": "address",
          "name": "_to",
          "type": "address"
        },
        {
          "internalType": "uint256",
          "name": "quantity",
          "type": "uint256"
        }
      ],
      "name": "mint",
      "outputs": [],
      "stateMutability": "payable",
      "type": "function"
    },
    {
      "inputs": [],
      "name": "mintCost",
      "outputs": [
        {
          "internalType": "uint256",
          "name": "",
          "type": "uint256"
        }
      ],
      "stateMutability": "view",
      "type": "function"
    },
    {
      "inputs": [],
      "name": "name",
      "outputs": [
        {
          "internalType": "string",
          "name": "",
          "type": "string"
        }
      ],
      "stateMutability": "view",
      "type": "function"
    },
    {
      "inputs": [],
      "name": "owner",
      "outputs": [
        {
          "internalType": "address",
          "name": "",
          "type": "address"
        }
      ],
      "stateMutability": "view",
      "type": "function"
    },
    {
      "inputs": [
        {
          "internalType": "uint256",
          "name": "tokenId",
          "type": "uint256"
        }
      ],
      "name": "ownerOf",
      "outputs": [
        {
          "internalType": "address",
          "name": "",
          "type": "address"
        }
      ],
      "stateMutability": "view",
      "type": "function"
    },
    {
      "inputs": [],
      "name": "renounceOwnership",
      "outputs": [],
      "stateMutability": "nonpayable",
      "type": "function"
    },
    {
      "inputs": [
        {
          "internalType": "address",
          "name": "from",
          "type": "address"
        },
        {
          "internalType": "address",
          "name": "to",
          "type": "address"
        },
        {
          "internalType": "uint256",
          "name": "tokenId",
          "type": "uint256"
        }
      ],
      "name": "safeTransferFrom",
      "outputs": [],
      "stateMutability": "payable",
      "type": "function"
    },
    {
      "inputs": [
        {
          "internalType": "address",
          "name": "from",
          "type": "address"
        },
        {
          "internalType": "address",
          "name": "to",
          "type": "address"
        },
        {
          "internalType": "uint256",
          "name": "tokenId",
          "type": "uint256"
        },
        {
          "internalType": "bytes",
          "name": "_data",
          "type": "bytes"
        }
      ],
      "name": "safeTransferFrom",
      "outputs": [],
      "stateMutability": "payable",
      "type": "function"
    },
    {
      "inputs": [
        {
          "internalType": "address",
          "name": "operator",
          "type": "address"
        },
        {
          "internalType": "bool",
          "name": "approved",
          "type": "bool"
        }
      ],
      "name": "setApprovalForAll",
      "outputs": [],
      "stateMutability": "nonpayable",
      "type": "function"
    },
    {
      "inputs": [],
      "name": "supplyTotal",
      "outputs": [
        {
          "internalType": "uint256",
          "name": "",
          "type": "uint256"
        }
      ],
      "stateMutability": "view",
      "type": "function"
    },
    {
      "inputs": [
        {
          "internalType": "bytes4",
          "name": "interfaceId",
          "type": "bytes4"
        }
      ],
      "name": "supportsInterface",
      "outputs": [
        {
          "internalType": "bool",
          "name": "",
          "type": "bool"
        }
      ],
      "stateMutability": "view",
      "type": "function"
    },
    {
      "inputs": [],
      "name": "symbol",
      "outputs": [
        {
          "internalType": "string",
          "name": "",
          "type": "string"
        }
      ],
      "stateMutability": "view",
      "type": "function"
    },
    {
      "inputs": [
        {
          "internalType": "uint256",
          "name": "tokenId",
          "type": "uint256"
        }
      ],
      "name": "tokenURI",
      "outputs": [
        {
          "internalType": "string",
          "name": "",
          "type": "string"
        }
      ],
      "stateMutability": "view",
      "type": "function"
    },
    {
      "inputs": [],
      "name": "totalSupply",
      "outputs": [
        {
          "internalType": "uint256",
          "name": "",
          "type": "uint256"
        }
      ],
      "stateMutability": "view",
      "type": "function"
    },
    {
      "inputs": [
        {
          "internalType": "address",
          "name": "from",
          "type": "address"
        },
        {
          "internalType": "address",
          "name": "to",
          "type": "address"
        },
        {
          "internalType": "uint256",
          "name": "tokenId",
          "type": "uint256"
        }
      ],
      "name": "transferFrom",
      "outputs": [],
      "stateMutability": "payable",
      "type": "function"
    },
    {
      "inputs": [
        {
          "internalType": "address",
          "name": "newOwner",
          "type": "address"
        }
      ],
      "name": "transferOwnership",
      "outputs": [],
      "stateMutability": "nonpayable",
      "type": "function"
    },
    {
      "inputs": [],
      "name": "withdraw",
      "outputs": [],
      "stateMutability": "payable",
      "type": "function"
    }
  ],
  "bytecode": "0x608060405267016345785d8a00006009556040518060400160405280600581526020017f2e6a736f6e000000000000000000000000000000000000000000000000000000815250600c90805190602001906200005d92919062000336565b503480156200006b57600080fd5b5060405162002e9938038062002e99833981810160405281019062000091919062000464565b6040518060400160405280600c81526020017f6c6f74746f5469636b65747300000000000000000000000000000000000000008152506040518060400160405280600281526020017f4c540000000000000000000000000000000000000000000000000000000000008152506200011d620001116200017f60201b60201c565b6200018760201b60201c565b81600390805190602001906200013592919062000336565b5080600490805190602001906200014e92919062000336565b506200015f6200024b60201b60201c565b600181905550505062000178816200025060201b60201c565b50620006bc565b600033905090565b60008060009054906101000a900473ffffffffffffffffffffffffffffffffffffffff169050816000806101000a81548173ffffffffffffffffffffffffffffffffffffffff021916908373ffffffffffffffffffffffffffffffffffffffff1602179055508173ffffffffffffffffffffffffffffffffffffffff168173ffffffffffffffffffffffffffffffffffffffff167f8be0079c531659141344cd1fd0a4f28419497f9722a3daafe3b4186f6b6457e060405160405180910390a35050565b600090565b620002606200027c60201b60201c565b80600b90805190602001906200027892919062000336565b5050565b6200028c6200017f60201b60201c565b73ffffffffffffffffffffffffffffffffffffffff16620002b26200030d60201b60201c565b73ffffffffffffffffffffffffffffffffffffffff16146200030b576040517f08c379a00000000000000000000000000000000000000000000000000000000081526004016200030290620004dc565b60405180910390fd5b565b60008060009054906101000a900473ffffffffffffffffffffffffffffffffffffffff16905090565b8280546200034490620005a4565b90600052602060002090601f016020900481019282620003685760008555620003b4565b82601f106200038357805160ff1916838001178555620003b4565b82800160010185558215620003b4579182015b82811115620003b357825182559160200191906001019062000396565b5b509050620003c39190620003c7565b5090565b5b80821115620003e2576000816000905550600101620003c8565b5090565b6000620003fd620003f78462000527565b620004fe565b9050828152602081018484840111156200041c576200041b62000673565b5b620004298482856200056e565b509392505050565b600082601f8301126200044957620004486200066e565b5b81516200045b848260208601620003e6565b91505092915050565b6000602082840312156200047d576200047c6200067d565b5b600082015167ffffffffffffffff8111156200049e576200049d62000678565b5b620004ac8482850162000431565b91505092915050565b6000620004c46020836200055d565b9150620004d18262000693565b602082019050919050565b60006020820190508181036000830152620004f781620004b5565b9050919050565b60006200050a6200051d565b9050620005188282620005da565b919050565b6000604051905090565b600067ffffffffffffffff8211156200054557620005446200063f565b5b620005508262000682565b9050602081019050919050565b600082825260208201905092915050565b60005b838110156200058e57808201518184015260208101905062000571565b838111156200059e576000848401525b50505050565b60006002820490506001821680620005bd57607f821691505b60208210811415620005d457620005d362000610565b5b50919050565b620005e58262000682565b810181811067ffffffffffffffff821117156200060757620006066200063f565b5b80604052505050565b7f4e487b7100000000000000000000000000000000000000000000000000000000600052602260045260246000fd5b7f4e487b7100000000000000000000000000000000000000000000000000000000600052604160045260246000fd5b600080fd5b600080fd5b600080fd5b600080fd5b6000601f19601f8301169050919050565b7f4f776e61626c653a2063616c6c6572206973206e6f7420746865206f776e6572600082015250565b6127cd80620006cc6000396000f3fe6080604052600436106101815760003560e01c80636c0360eb116100d1578063b88d4fde1161008a578063c87b56dd11610064578063c87b56dd146104ef578063e651e04c1461052c578063e985e9c514610557578063f2fde38b1461059457610181565b8063b88d4fde1461047d578063bdb4b84814610499578063c6682862146104c457610181565b80636c0360eb1461037f57806370a08231146103aa578063715018a6146103e75780638da5cb5b146103fe57806395d89b4114610429578063a22cb4651461045457610181565b806313c738f01161013e5780633ccfd60b116101185780633ccfd60b1461030057806340c10f191461030a57806342842e0e146103265780636352211e1461034257610181565b806313c738f01461028e57806318160ddd146102b957806323b872dd146102e457610181565b806301ffc9a71461018657806305813e33146101c357806306fdde03146101df578063081812fc1461020a578063095ea7b3146102475780630ca1c5c914610263575b600080fd5b34801561019257600080fd5b506101ad60048036038101906101a8919061206d565b6105bd565b6040516101ba91906122db565b60405180910390f35b6101dd60048036038101906101d891906120c7565b61064f565b005b3480156101eb57600080fd5b506101f46106c9565b60405161020191906122f6565b60405180910390f35b34801561021657600080fd5b50610231600480360381019061022c91906120c7565b61075b565b60405161023e9190612274565b60405180910390f35b610261600480360381019061025c919061202d565b6107da565b005b34801561026f57600080fd5b5061027861091e565b6040516102859190612398565b60405180910390f35b34801561029a57600080fd5b506102a361092d565b6040516102b09190612398565b60405180910390f35b3480156102c557600080fd5b506102ce610937565b6040516102db9190612398565b60405180910390f35b6102fe60048036038101906102f99190611f17565b61094e565b005b610308610c73565b005b610324600480360381019061031f919061202d565b610cbb565b005b610340600480360381019061033b9190611f17565b610d94565b005b34801561034e57600080fd5b50610369600480360381019061036491906120c7565b610db4565b6040516103769190612274565b60405180910390f35b34801561038b57600080fd5b50610394610dc6565b6040516103a191906122f6565b60405180910390f35b3480156103b657600080fd5b506103d160048036038101906103cc9190611eaa565b610e54565b6040516103de9190612398565b60405180910390f35b3480156103f357600080fd5b506103fc610f0d565b005b34801561040a57600080fd5b50610413610f21565b6040516104209190612274565b60405180910390f35b34801561043557600080fd5b5061043e610f4a565b60405161044b91906122f6565b60405180910390f35b34801561046057600080fd5b5061047b60048036038101906104769190611fed565b610fdc565b005b61049760048036038101906104929190611f6a565b6110e7565b005b3480156104a557600080fd5b506104ae61115a565b6040516104bb9190612398565b60405180910390f35b3480156104d057600080fd5b506104d9611160565b6040516104e691906122f6565b60405180910390f35b3480156104fb57600080fd5b50610516600480360381019061051191906120c7565b6111ee565b60405161052391906122f6565b60405180910390f35b34801561053857600080fd5b5061054161128d565b60405161054e9190612398565b60405180910390f35b34801561056357600080fd5b5061057e60048036038101906105799190611ed7565b611293565b60405161058b91906122db565b60405180910390f35b3480156105a057600080fd5b506105bb60048036038101906105b69190611eaa565b611327565b005b60006301ffc9a760e01b827bffffffffffffffffffffffffffffffffffffffffffffffffffffffff1916148061061857506380ac58cd60e01b827bffffffffffffffffffffffffffffffffffffffffffffffffffffffff1916145b806106485750635b5e139f60e01b827bffffffffffffffffffffffffffffffffffffffffffffffffffffffff1916145b9050919050565b3373ffffffffffffffffffffffffffffffffffffffff163273ffffffffffffffffffffffffffffffffffffffff16146106bd576040517f08c379a00000000000000000000000000000000000000000000000000000000081526004016106b490612358565b60405180910390fd5b6106c6816113ab565b50565b6060600380546106d89061255c565b80601f01602080910402602001604051908101604052809291908181526020018280546107049061255c565b80156107515780601f1061072657610100808354040283529160200191610751565b820191906000526020600020905b81548152906001019060200180831161073457829003601f168201915b5050505050905090565b6000610766826113b9565b61079c576040517fcf4700e400000000000000000000000000000000000000000000000000000000815260040160405180910390fd5b6007600083815260200190815260200160002060000160009054906101000a900473ffffffffffffffffffffffffffffffffffffffff169050919050565b60006107e582610db4565b90508073ffffffffffffffffffffffffffffffffffffffff16610806611418565b73ffffffffffffffffffffffffffffffffffffffff1614610869576108328161082d611418565b611293565b610868576040517fcfb3b94200000000000000000000000000000000000000000000000000000000815260040160405180910390fd5b5b826007600084815260200190815260200160002060000160006101000a81548173ffffffffffffffffffffffffffffffffffffffff021916908373ffffffffffffffffffffffffffffffffffffffff160217905550818373ffffffffffffffffffffffffffffffffffffffff168273ffffffffffffffffffffffffffffffffffffffff167f8c5be1e5ebec7d5bd14f71427d1e84f3dd0314c0f7b2291e5b200ac8c7c3b92560405160405180910390a4505050565b6000610928611420565b905090565b6000600954905090565b6000610941611433565b6002546001540303905090565b600061095982611438565b90508373ffffffffffffffffffffffffffffffffffffffff168173ffffffffffffffffffffffffffffffffffffffff16146109c0576040517fa114810000000000000000000000000000000000000000000000000000000000815260040160405180910390fd5b6000806109cc84611506565b915091506109e281876109dd611418565b61152d565b610a2e576109f7866109f2611418565b611293565b610a2d576040517f59c896be00000000000000000000000000000000000000000000000000000000815260040160405180910390fd5b5b600073ffffffffffffffffffffffffffffffffffffffff168573ffffffffffffffffffffffffffffffffffffffff161415610a95576040517fea553b3400000000000000000000000000000000000000000000000000000000815260040160405180910390fd5b610aa28686866001611571565b8015610aad57600082555b600660008773ffffffffffffffffffffffffffffffffffffffff1673ffffffffffffffffffffffffffffffffffffffff168152602001908152602001600020600081546001900391905081905550600660008673ffffffffffffffffffffffffffffffffffffffff1673ffffffffffffffffffffffffffffffffffffffff1681526020019081526020016000206000815460010191905081905550610b7b85610b57888887611577565b7c02000000000000000000000000000000000000000000000000000000001761159f565b600560008681526020019081526020016000208190555060007c020000000000000000000000000000000000000000000000000000000084161415610c03576000600185019050600060056000838152602001908152602001600020541415610c01576001548114610c00578360056000838152602001908152602001600020819055505b5b505b838573ffffffffffffffffffffffffffffffffffffffff168773ffffffffffffffffffffffffffffffffffffffff167fddf252ad1be2c89b69c2b068fc378daa952ba7f163c4a11628f55a4df523b3ef60405160405180910390a4610c6b86868660016115ca565b505050505050565b610c7b6115d0565b3373ffffffffffffffffffffffffffffffffffffffff166108fc479081150290604051600060405180830381858888f19350505050610cb957600080fd5b565b3373ffffffffffffffffffffffffffffffffffffffff163273ffffffffffffffffffffffffffffffffffffffff1614610d29576040517f08c379a0000000000000000000000000000000000000000000000000000000008152600401610d2090612358565b60405180910390fd5b60008111610d3657600080fd5b80600954610d44919061244c565b341015610d86576040517f08c379a0000000000000000000000000000000000000000000000000000000008152600401610d7d90612338565b60405180910390fd5b610d90828261164e565b5050565b610daf838383604051806020016040528060008152506110e7565b505050565b6000610dbf82611438565b9050919050565b600b8054610dd39061255c565b80601f0160208091040260200160405190810160405280929190818152602001828054610dff9061255c565b8015610e4c5780601f10610e2157610100808354040283529160200191610e4c565b820191906000526020600020905b815481529060010190602001808311610e2f57829003601f168201915b505050505081565b60008073ffffffffffffffffffffffffffffffffffffffff168273ffffffffffffffffffffffffffffffffffffffff161415610ebc576040517f8f4eb60400000000000000000000000000000000000000000000000000000000815260040160405180910390fd5b67ffffffffffffffff600660008473ffffffffffffffffffffffffffffffffffffffff1673ffffffffffffffffffffffffffffffffffffffff16815260200190815260200160002054169050919050565b610f156115d0565b610f1f600061166c565b565b60008060009054906101000a900473ffffffffffffffffffffffffffffffffffffffff16905090565b606060048054610f599061255c565b80601f0160208091040260200160405190810160405280929190818152602001828054610f859061255c565b8015610fd25780601f10610fa757610100808354040283529160200191610fd2565b820191906000526020600020905b815481529060010190602001808311610fb557829003601f168201915b5050505050905090565b8060086000610fe9611418565b73ffffffffffffffffffffffffffffffffffffffff1673ffffffffffffffffffffffffffffffffffffffff16815260200190815260200160002060008473ffffffffffffffffffffffffffffffffffffffff1673ffffffffffffffffffffffffffffffffffffffff16815260200190815260200160002060006101000a81548160ff0219169083151502179055508173ffffffffffffffffffffffffffffffffffffffff16611096611418565b73ffffffffffffffffffffffffffffffffffffffff167f17307eab39ab6107e8899845ad3d59bd9653f200f220920489ca2b5937696c31836040516110db91906122db565b60405180910390a35050565b6110f284848461094e565b60008373ffffffffffffffffffffffffffffffffffffffff163b146111545761111d84848484611730565b611153576040517fd1a57ed600000000000000000000000000000000000000000000000000000000815260040160405180910390fd5b5b50505050565b60095481565b600c805461116d9061255c565b80601f01602080910402602001604051908101604052809291908181526020018280546111999061255c565b80156111e65780601f106111bb576101008083540402835291602001916111e6565b820191906000526020600020905b8154815290600101906020018083116111c957829003601f168201915b505050505081565b60606111f9826113b9565b61122f576040517fa14c4b5000000000000000000000000000000000000000000000000000000000815260040160405180910390fd5b6000611239611890565b905060008151141561125a5760405180602001604052806000815250611285565b80611264846118a7565b604051602001611275929190612250565b6040516020818303038152906040525b915050919050565b600a5481565b6000600860008473ffffffffffffffffffffffffffffffffffffffff1673ffffffffffffffffffffffffffffffffffffffff16815260200190815260200160002060008373ffffffffffffffffffffffffffffffffffffffff1673ffffffffffffffffffffffffffffffffffffffff16815260200190815260200160002060009054906101000a900460ff16905092915050565b61132f6115d0565b600073ffffffffffffffffffffffffffffffffffffffff168173ffffffffffffffffffffffffffffffffffffffff16141561139f576040517f08c379a000000000000000000000000000000000000000000000000000000000815260040161139690612318565b60405180910390fd5b6113a88161166c565b50565b6113b6816000611900565b50565b6000816113c4611433565b111580156113d3575060015482105b8015611411575060007c0100000000000000000000000000000000000000000000000000000000600560008581526020019081526020016000205416145b9050919050565b600033905090565b600061142a611433565b60015403905090565b600090565b60008082905080611447611433565b116114cf576001548110156114ce5760006005600083815260200190815260200160002054905060007c0100000000000000000000000000000000000000000000000000000000821614156114cc575b60008114156114c2576005600083600190039350838152602001908152602001600020549050611497565b8092505050611501565b505b5b6040517fdf2d9b4200000000000000000000000000000000000000000000000000000000815260040160405180910390fd5b919050565b60008060006007600085815260200190815260200160002090508092508254915050915091565b600073ffffffffffffffffffffffffffffffffffffffff8316925073ffffffffffffffffffffffffffffffffffffffff821691508382148383141790509392505050565b50505050565b60008060e883901c905060e861158e868684611b54565b62ffffff16901b9150509392505050565b600073ffffffffffffffffffffffffffffffffffffffff83169250814260a01b178317905092915050565b50505050565b6115d8611b5d565b73ffffffffffffffffffffffffffffffffffffffff166115f6610f21565b73ffffffffffffffffffffffffffffffffffffffff161461164c576040517f08c379a000000000000000000000000000000000000000000000000000000000815260040161164390612378565b60405180910390fd5b565b611668828260405180602001604052806000815250611b65565b5050565b60008060009054906101000a900473ffffffffffffffffffffffffffffffffffffffff169050816000806101000a81548173ffffffffffffffffffffffffffffffffffffffff021916908373ffffffffffffffffffffffffffffffffffffffff1602179055508173ffffffffffffffffffffffffffffffffffffffff168173ffffffffffffffffffffffffffffffffffffffff167f8be0079c531659141344cd1fd0a4f28419497f9722a3daafe3b4186f6b6457e060405160405180910390a35050565b60008373ffffffffffffffffffffffffffffffffffffffff1663150b7a02611756611418565b8786866040518563ffffffff1660e01b8152600401611778949392919061228f565b602060405180830381600087803b15801561179257600080fd5b505af19250505080156117c357506040513d601f19601f820116820180604052508101906117c0919061209a565b60015b61183d573d80600081146117f3576040519150601f19603f3d011682016040523d82523d6000602084013e6117f8565b606091505b50600081511415611835576040517fd1a57ed600000000000000000000000000000000000000000000000000000000815260040160405180910390fd5b805181602001fd5b63150b7a0260e01b7bffffffffffffffffffffffffffffffffffffffffffffffffffffffff1916817bffffffffffffffffffffffffffffffffffffffffffffffffffffffff191614915050949350505050565b606060405180602001604052806000815250905090565b606060a060405101806040526020810391506000825281835b6001156118eb57600184039350600a81066030018453600a81049050806118e6576118eb565b6118c0565b50828103602084039350808452505050919050565b600061190b83611438565b9050600081905060008061191e86611506565b9150915084156119875761193a8184611935611418565b61152d565b6119865761194f8361194a611418565b611293565b611985576040517f59c896be00000000000000000000000000000000000000000000000000000000815260040160405180910390fd5b5b5b611995836000886001611571565b80156119a057600082555b600160806001901b03600660008573ffffffffffffffffffffffffffffffffffffffff1673ffffffffffffffffffffffffffffffffffffffff16815260200190815260200160002060008282540192505081905550611a4883611a0585600088611577565b7c02000000000000000000000000000000000000000000000000000000007c0100000000000000000000000000000000000000000000000000000000171761159f565b600560008881526020019081526020016000208190555060007c020000000000000000000000000000000000000000000000000000000085161415611ad0576000600187019050600060056000838152602001908152602001600020541415611ace576001548114611acd578460056000838152602001908152602001600020819055505b5b505b85600073ffffffffffffffffffffffffffffffffffffffff168473ffffffffffffffffffffffffffffffffffffffff167fddf252ad1be2c89b69c2b068fc378daa952ba7f163c4a11628f55a4df523b3ef60405160405180910390a4611b3a8360008860016115ca565b600260008154809291906001019190505550505050505050565b60009392505050565b600033905090565b611b6f8383611c03565b60008373ffffffffffffffffffffffffffffffffffffffff163b14611bfe5760006001549050600083820390505b611bb06000868380600101945086611730565b611be6576040517fd1a57ed600000000000000000000000000000000000000000000000000000000815260040160405180910390fd5b818110611b9d578160015414611bfb57600080fd5b50505b505050565b600060015490506000821415611c45576040517fb562e8dd00000000000000000000000000000000000000000000000000000000815260040160405180910390fd5b611c526000848385611571565b600160406001901b178202600660008573ffffffffffffffffffffffffffffffffffffffff1673ffffffffffffffffffffffffffffffffffffffff16815260200190815260200160002060008282540192505081905550611cc983611cba6000866000611577565b611cc385611dc1565b1761159f565b6005600083815260200190815260200160002081905550600080838301905073ffffffffffffffffffffffffffffffffffffffff85169150828260007fddf252ad1be2c89b69c2b068fc378daa952ba7f163c4a11628f55a4df523b3ef600080a4600183015b818114611d6a57808360007fddf252ad1be2c89b69c2b068fc378daa952ba7f163c4a11628f55a4df523b3ef600080a4600181019050611d2f565b506000821415611da6576040517f2e07630000000000000000000000000000000000000000000000000000000000815260040160405180910390fd5b806001819055505050611dbc60008483856115ca565b505050565b60006001821460e11b9050919050565b6000611de4611ddf846123d8565b6123b3565b905082815260208101848484011115611e0057611dff612651565b5b611e0b84828561251a565b509392505050565b600081359050611e228161273b565b92915050565b600081359050611e3781612752565b92915050565b600081359050611e4c81612769565b92915050565b600081519050611e6181612769565b92915050565b600082601f830112611e7c57611e7b61264c565b5b8135611e8c848260208601611dd1565b91505092915050565b600081359050611ea481612780565b92915050565b600060208284031215611ec057611ebf61265b565b5b6000611ece84828501611e13565b91505092915050565b60008060408385031215611eee57611eed61265b565b5b6000611efc85828601611e13565b9250506020611f0d85828601611e13565b9150509250929050565b600080600060608486031215611f3057611f2f61265b565b5b6000611f3e86828701611e13565b9350506020611f4f86828701611e13565b9250506040611f6086828701611e95565b9150509250925092565b60008060008060808587031215611f8457611f8361265b565b5b6000611f9287828801611e13565b9450506020611fa387828801611e13565b9350506040611fb487828801611e95565b925050606085013567ffffffffffffffff811115611fd557611fd4612656565b5b611fe187828801611e67565b91505092959194509250565b600080604083850312156120045761200361265b565b5b600061201285828601611e13565b925050602061202385828601611e28565b9150509250929050565b600080604083850312156120445761204361265b565b5b600061205285828601611e13565b925050602061206385828601611e95565b9150509250929050565b6000602082840312156120835761208261265b565b5b600061209184828501611e3d565b91505092915050565b6000602082840312156120b0576120af61265b565b5b60006120be84828501611e52565b91505092915050565b6000602082840312156120dd576120dc61265b565b5b60006120eb84828501611e95565b91505092915050565b6120fd816124a6565b82525050565b61210c816124b8565b82525050565b600061211d82612409565b612127818561241f565b9350612137818560208601612529565b61214081612660565b840191505092915050565b600061215682612414565b6121608185612430565b9350612170818560208601612529565b61217981612660565b840191505092915050565b600061218f82612414565b6121998185612441565b93506121a9818560208601612529565b80840191505092915050565b60006121c2602683612430565b91506121cd82612671565b604082019050919050565b60006121e5601083612430565b91506121f0826126c0565b602082019050919050565b6000612208601e83612430565b9150612213826126e9565b602082019050919050565b600061222b602083612430565b915061223682612712565b602082019050919050565b61224a81612510565b82525050565b600061225c8285612184565b91506122688284612184565b91508190509392505050565b600060208201905061228960008301846120f4565b92915050565b60006080820190506122a460008301876120f4565b6122b160208301866120f4565b6122be6040830185612241565b81810360608301526122d08184612112565b905095945050505050565b60006020820190506122f06000830184612103565b92915050565b60006020820190508181036000830152612310818461214b565b905092915050565b60006020820190508181036000830152612331816121b5565b9050919050565b60006020820190508181036000830152612351816121d8565b9050919050565b60006020820190508181036000830152612371816121fb565b9050919050565b600060208201905081810360008301526123918161221e565b9050919050565b60006020820190506123ad6000830184612241565b92915050565b60006123bd6123ce565b90506123c9828261258e565b919050565b6000604051905090565b600067ffffffffffffffff8211156123f3576123f261261d565b5b6123fc82612660565b9050602081019050919050565b600081519050919050565b600081519050919050565b600082825260208201905092915050565b600082825260208201905092915050565b600081905092915050565b600061245782612510565b915061246283612510565b9250817fffffffffffffffffffffffffffffffffffffffffffffffffffffffffffffffff048311821515161561249b5761249a6125bf565b5b828202905092915050565b60006124b1826124f0565b9050919050565b60008115159050919050565b60007fffffffff0000000000000000000000000000000000000000000000000000000082169050919050565b600073ffffffffffffffffffffffffffffffffffffffff82169050919050565b6000819050919050565b82818337600083830152505050565b60005b8381101561254757808201518184015260208101905061252c565b83811115612556576000848401525b50505050565b6000600282049050600182168061257457607f821691505b60208210811415612588576125876125ee565b5b50919050565b61259782612660565b810181811067ffffffffffffffff821117156125b6576125b561261d565b5b80604052505050565b7f4e487b7100000000000000000000000000000000000000000000000000000000600052601160045260246000fd5b7f4e487b7100000000000000000000000000000000000000000000000000000000600052602260045260246000fd5b7f4e487b7100000000000000000000000000000000000000000000000000000000600052604160045260246000fd5b600080fd5b600080fd5b600080fd5b600080fd5b6000601f19601f8301169050919050565b7f4f776e61626c653a206e6577206f776e657220697320746865207a65726f206160008201527f6464726573730000000000000000000000000000000000000000000000000000602082015250565b7f4e6f7420656e6f7567682066756e647300000000000000000000000000000000600082015250565b7f5468652063616c6c657220697320616e6f7468657220636f6e74726163740000600082015250565b7f4f776e61626c653a2063616c6c6572206973206e6f7420746865206f776e6572600082015250565b612744816124a6565b811461274f57600080fd5b50565b61275b816124b8565b811461276657600080fd5b50565b612772816124c4565b811461277d57600080fd5b50565b61278981612510565b811461279457600080fd5b5056fea26469706673582212204baab33b7b8ec520332b2c8aa7da532f7fe94d3a834be195fa116bdd4c87fb5564736f6c63430008070033",
  "linkReferences": {},
  "deployedLinkReferences": {}
}