{
  "_format": "hh-sol-artifact-1",
  "contractName": "LottoTickets",
  "sourceName": "contracts/LotoTickets.sol",
  "abi": [
    {
      "inputs": [
        {
          "internalType": "string",
          "name": "_initBaseURI",
          "type": "string"
        },
        {
          "internalType": "address payable",
          "name": "_docTokenAddress",
          "type": "address"
        }
      ],
      "stateMutability": "nonpayable",
      "type": "constructor"
    },
    {
      "inputs": [],
      "name": "ApprovalCallerNotOwnerNorApproved",
      "type": "error"
    },
    {
      "inputs": [],
      "name": "ApprovalQueryForNonexistentToken",
      "type": "error"
    },
    {
      "inputs": [],
      "name": "BalanceQueryForZeroAddress",
      "type": "error"
    },
    {
      "inputs": [],
      "name": "MintERC2309QuantityExceedsLimit",
      "type": "error"
    },
    {
      "inputs": [],
      "name": "MintToZeroAddress",
      "type": "error"
    },
    {
      "inputs": [],
      "name": "MintZeroQuantity",
      "type": "error"
    },
    {
      "inputs": [],
      "name": "OwnerQueryForNonexistentToken",
      "type": "error"
    },
    {
      "inputs": [],
      "name": "OwnershipNotInitializedForExtraData",
      "type": "error"
    },
    {
      "inputs": [],
      "name": "TransferCallerNotOwnerNorApproved",
      "type": "error"
    },
    {
      "inputs": [],
      "name": "TransferFromIncorrectOwner",
      "type": "error"
    },
    {
      "inputs": [],
      "name": "TransferToNonERC721ReceiverImplementer",
      "type": "error"
    },
    {
      "inputs": [],
      "name": "TransferToZeroAddress",
      "type": "error"
    },
    {
      "inputs": [],
      "name": "URIQueryForNonexistentToken",
      "type": "error"
    },
    {
      "anonymous": false,
      "inputs": [
        {
          "indexed": true,
          "internalType": "address",
          "name": "owner",
          "type": "address"
        },
        {
          "indexed": true,
          "internalType": "address",
          "name": "approved",
          "type": "address"
        },
        {
          "indexed": true,
          "internalType": "uint256",
          "name": "tokenId",
          "type": "uint256"
        }
      ],
      "name": "Approval",
      "type": "event"
    },
    {
      "anonymous": false,
      "inputs": [
        {
          "indexed": true,
          "internalType": "address",
          "name": "owner",
          "type": "address"
        },
        {
          "indexed": true,
          "internalType": "address",
          "name": "operator",
          "type": "address"
        },
        {
          "indexed": false,
          "internalType": "bool",
          "name": "approved",
          "type": "bool"
        }
      ],
      "name": "ApprovalForAll",
      "type": "event"
    },
    {
      "anonymous": false,
      "inputs": [
        {
          "indexed": true,
          "internalType": "uint256",
          "name": "fromTokenId",
          "type": "uint256"
        },
        {
          "indexed": false,
          "internalType": "uint256",
          "name": "toTokenId",
          "type": "uint256"
        },
        {
          "indexed": true,
          "internalType": "address",
          "name": "from",
          "type": "address"
        },
        {
          "indexed": true,
          "internalType": "address",
          "name": "to",
          "type": "address"
        }
      ],
      "name": "ConsecutiveTransfer",
      "type": "event"
    },
    {
      "anonymous": false,
      "inputs": [
        {
          "indexed": true,
          "internalType": "address",
          "name": "previousOwner",
          "type": "address"
        },
        {
          "indexed": true,
          "internalType": "address",
          "name": "newOwner",
          "type": "address"
        }
      ],
      "name": "OwnershipTransferred",
      "type": "event"
    },
    {
      "anonymous": false,
      "inputs": [
        {
          "indexed": true,
          "internalType": "address",
          "name": "from",
          "type": "address"
        },
        {
          "indexed": true,
          "internalType": "address",
          "name": "to",
          "type": "address"
        },
        {
          "indexed": true,
          "internalType": "uint256",
          "name": "tokenId",
          "type": "uint256"
        }
      ],
      "name": "Transfer",
      "type": "event"
    },
    {
      "inputs": [
        {
          "internalType": "address",
          "name": "to",
          "type": "address"
        },
        {
          "internalType": "uint256",
          "name": "tokenId",
          "type": "uint256"
        }
      ],
      "name": "approve",
      "outputs": [],
      "stateMutability": "payable",
      "type": "function"
    },
    {
      "inputs": [
        {
          "internalType": "address",
          "name": "owner",
          "type": "address"
        }
      ],
      "name": "balanceOf",
      "outputs": [
        {
          "internalType": "uint256",
          "name": "",
          "type": "uint256"
        }
      ],
      "stateMutability": "view",
      "type": "function"
    },
    {
      "inputs": [],
      "name": "baseExtension",
      "outputs": [
        {
          "internalType": "string",
          "name": "",
          "type": "string"
        }
      ],
      "stateMutability": "view",
      "type": "function"
    },
    {
      "inputs": [],
      "name": "baseURI",
      "outputs": [
        {
          "internalType": "string",
          "name": "",
          "type": "string"
        }
      ],
      "stateMutability": "view",
      "type": "function"
    },
    {
      "inputs": [
        {
          "internalType": "uint256",
          "name": "tokenId",
          "type": "uint256"
        }
      ],
      "name": "burnOneToken",
      "outputs": [],
      "stateMutability": "payable",
      "type": "function"
    },
    {
      "inputs": [],
      "name": "docToken",
      "outputs": [
        {
          "internalType": "contract DocToken",
          "name": "",
          "type": "address"
        }
      ],
      "stateMutability": "view",
      "type": "function"
    },
    {
      "inputs": [
        {
          "internalType": "uint256",
          "name": "tokenId",
          "type": "uint256"
        }
      ],
      "name": "getApproved",
      "outputs": [
        {
          "internalType": "address",
          "name": "",
          "type": "address"
        }
      ],
      "stateMutability": "view",
      "type": "function"
    },
    {
      "inputs": [],
      "name": "getCapital",
      "outputs": [
        {
          "internalType": "uint256",
          "name": "",
          "type": "uint256"
        }
      ],
      "stateMutability": "view",
      "type": "function"
    },
    {
      "inputs": [],
      "name": "getDocAmountOnContract",
      "outputs": [
        {
          "internalType": "uint256",
          "name": "",
          "type": "uint256"
        }
      ],
      "stateMutability": "view",
      "type": "function"
    },
    {
      "inputs": [
        {
          "internalType": "address",
          "name": "owner",
          "type": "address"
        },
        {
          "internalType": "address",
          "name": "operator",
          "type": "address"
        }
      ],
      "name": "isApprovedForAll",
      "outputs": [
        {
          "internalType": "bool",
          "name": "",
          "type": "bool"
        }
      ],
      "stateMutability": "view",
      "type": "function"
    },
    {
      "inputs": [
        {
          "internalType": "address",
          "name": "_to",
          "type": "address"
        },
        {
          "internalType": "uint256",
          "name": "quantity",
          "type": "uint256"
        }
      ],
      "name": "mint",
      "outputs": [],
      "stateMutability": "payable",
      "type": "function"
    },
    {
      "inputs": [],
      "name": "mintCost",
      "outputs": [
        {
          "internalType": "uint256",
          "name": "",
          "type": "uint256"
        }
      ],
      "stateMutability": "view",
      "type": "function"
    },
    {
      "inputs": [
        {
          "internalType": "address",
          "name": "_to",
          "type": "address"
        },
        {
          "internalType": "uint256",
          "name": "quantity",
          "type": "uint256"
        }
      ],
      "name": "mintWithDOC",
      "outputs": [],
      "stateMutability": "nonpayable",
      "type": "function"
    },
    {
      "inputs": [],
      "name": "name",
      "outputs": [
        {
          "internalType": "string",
          "name": "",
          "type": "string"
        }
      ],
      "stateMutability": "view",
      "type": "function"
    },
    {
      "inputs": [],
      "name": "owner",
      "outputs": [
        {
          "internalType": "address",
          "name": "",
          "type": "address"
        }
      ],
      "stateMutability": "view",
      "type": "function"
    },
    {
      "inputs": [
        {
          "internalType": "uint256",
          "name": "tokenId",
          "type": "uint256"
        }
      ],
      "name": "ownerOf",
      "outputs": [
        {
          "internalType": "address",
          "name": "",
          "type": "address"
        }
      ],
      "stateMutability": "view",
      "type": "function"
    },
    {
      "inputs": [],
      "name": "renounceOwnership",
      "outputs": [],
      "stateMutability": "nonpayable",
      "type": "function"
    },
    {
      "inputs": [
        {
          "internalType": "address",
          "name": "from",
          "type": "address"
        },
        {
          "internalType": "address",
          "name": "to",
          "type": "address"
        },
        {
          "internalType": "uint256",
          "name": "tokenId",
          "type": "uint256"
        }
      ],
      "name": "safeTransferFrom",
      "outputs": [],
      "stateMutability": "payable",
      "type": "function"
    },
    {
      "inputs": [
        {
          "internalType": "address",
          "name": "from",
          "type": "address"
        },
        {
          "internalType": "address",
          "name": "to",
          "type": "address"
        },
        {
          "internalType": "uint256",
          "name": "tokenId",
          "type": "uint256"
        },
        {
          "internalType": "bytes",
          "name": "_data",
          "type": "bytes"
        }
      ],
      "name": "safeTransferFrom",
      "outputs": [],
      "stateMutability": "payable",
      "type": "function"
    },
    {
      "inputs": [
        {
          "internalType": "address",
          "name": "operator",
          "type": "address"
        },
        {
          "internalType": "bool",
          "name": "approved",
          "type": "bool"
        }
      ],
      "name": "setApprovalForAll",
      "outputs": [],
      "stateMutability": "nonpayable",
      "type": "function"
    },
    {
      "inputs": [],
      "name": "supplyTotal",
      "outputs": [
        {
          "internalType": "uint256",
          "name": "",
          "type": "uint256"
        }
      ],
      "stateMutability": "view",
      "type": "function"
    },
    {
      "inputs": [
        {
          "internalType": "bytes4",
          "name": "interfaceId",
          "type": "bytes4"
        }
      ],
      "name": "supportsInterface",
      "outputs": [
        {
          "internalType": "bool",
          "name": "",
          "type": "bool"
        }
      ],
      "stateMutability": "view",
      "type": "function"
    },
    {
      "inputs": [],
      "name": "symbol",
      "outputs": [
        {
          "internalType": "string",
          "name": "",
          "type": "string"
        }
      ],
      "stateMutability": "view",
      "type": "function"
    },
    {
      "inputs": [
        {
          "internalType": "uint256",
          "name": "tokenId",
          "type": "uint256"
        }
      ],
      "name": "tokenURI",
      "outputs": [
        {
          "internalType": "string",
          "name": "",
          "type": "string"
        }
      ],
      "stateMutability": "view",
      "type": "function"
    },
    {
      "inputs": [],
      "name": "totalSupply",
      "outputs": [
        {
          "internalType": "uint256",
          "name": "",
          "type": "uint256"
        }
      ],
      "stateMutability": "view",
      "type": "function"
    },
    {
      "inputs": [
        {
          "internalType": "address",
          "name": "from",
          "type": "address"
        },
        {
          "internalType": "address",
          "name": "to",
          "type": "address"
        },
        {
          "internalType": "uint256",
          "name": "tokenId",
          "type": "uint256"
        }
      ],
      "name": "transferFrom",
      "outputs": [],
      "stateMutability": "payable",
      "type": "function"
    },
    {
      "inputs": [
        {
          "internalType": "address",
          "name": "newOwner",
          "type": "address"
        }
      ],
      "name": "transferOwnership",
      "outputs": [],
      "stateMutability": "nonpayable",
      "type": "function"
    },
    {
      "inputs": [],
      "name": "withdraw",
      "outputs": [],
      "stateMutability": "payable",
      "type": "function"
    }
  ],
  "bytecode": "0x60806040526001600b556040518060400160405280600581526020017f2e6a736f6e000000000000000000000000000000000000000000000000000000815250600e90805190602001906200005692919062000379565b503480156200006457600080fd5b506040516200370d3803806200370d83398181016040528101906200008a9190620004be565b6040518060400160405280600c81526020017f4c6f74746f5469636b65747300000000000000000000000000000000000000008152506040518060400160405280600281526020017f4c54000000000000000000000000000000000000000000000000000000000000815250620001166200010a620001c260201b60201c565b620001ca60201b60201c565b81600390805190602001906200012e92919062000379565b5080600490805190602001906200014792919062000379565b50620001586200028e60201b60201c565b6001819055505050600160098190555062000179826200029360201b60201c565b80600a60006101000a81548173ffffffffffffffffffffffffffffffffffffffff021916908373ffffffffffffffffffffffffffffffffffffffff160217905550505062000779565b600033905090565b60008060009054906101000a900473ffffffffffffffffffffffffffffffffffffffff169050816000806101000a81548173ffffffffffffffffffffffffffffffffffffffff021916908373ffffffffffffffffffffffffffffffffffffffff1602179055508173ffffffffffffffffffffffffffffffffffffffff168173ffffffffffffffffffffffffffffffffffffffff167f8be0079c531659141344cd1fd0a4f28419497f9722a3daafe3b4186f6b6457e060405160405180910390a35050565b600090565b620002a3620002bf60201b60201c565b80600d9080519060200190620002bb92919062000379565b5050565b620002cf620001c260201b60201c565b73ffffffffffffffffffffffffffffffffffffffff16620002f56200035060201b60201c565b73ffffffffffffffffffffffffffffffffffffffff16146200034e576040517f08c379a000000000000000000000000000000000000000000000000000000000815260040162000345906200054b565b60405180910390fd5b565b60008060009054906101000a900473ffffffffffffffffffffffffffffffffffffffff16905090565b828054620003879062000647565b90600052602060002090601f016020900481019282620003ab5760008555620003f7565b82601f10620003c657805160ff1916838001178555620003f7565b82800160010185558215620003f7579182015b82811115620003f6578251825591602001919060010190620003d9565b5b5090506200040691906200040a565b5090565b5b80821115620004255760008160009055506001016200040b565b5090565b6000620004406200043a8462000596565b6200056d565b9050828152602081018484840111156200045f576200045e62000716565b5b6200046c84828562000611565b509392505050565b60008151905062000485816200075f565b92915050565b600082601f830112620004a357620004a262000711565b5b8151620004b584826020860162000429565b91505092915050565b60008060408385031215620004d857620004d762000720565b5b600083015167ffffffffffffffff811115620004f957620004f86200071b565b5b62000507858286016200048b565b92505060206200051a8582860162000474565b9150509250929050565b600062000533602083620005cc565b9150620005408262000736565b602082019050919050565b60006020820190508181036000830152620005668162000524565b9050919050565b6000620005796200058c565b90506200058782826200067d565b919050565b6000604051905090565b600067ffffffffffffffff821115620005b457620005b3620006e2565b5b620005bf8262000725565b9050602081019050919050565b600082825260208201905092915050565b6000620005ea82620005f1565b9050919050565b600073ffffffffffffffffffffffffffffffffffffffff82169050919050565b60005b838110156200063157808201518184015260208101905062000614565b8381111562000641576000848401525b50505050565b600060028204905060018216806200066057607f821691505b60208210811415620006775762000676620006b3565b5b50919050565b620006888262000725565b810181811067ffffffffffffffff82111715620006aa57620006a9620006e2565b5b80604052505050565b7f4e487b7100000000000000000000000000000000000000000000000000000000600052602260045260246000fd5b7f4e487b7100000000000000000000000000000000000000000000000000000000600052604160045260246000fd5b600080fd5b600080fd5b600080fd5b600080fd5b6000601f19601f8301169050919050565b7f4f776e61626c653a2063616c6c6572206973206e6f7420746865206f776e6572600082015250565b6200076a81620005dd565b81146200077657600080fd5b50565b612f8480620007896000396000f3fe6080604052600436106101b75760003560e01c8063715018a6116100ec578063c66828621161008a578063e651e04c11610064578063e651e04c1461058b578063e8bcd9b0146105b6578063e985e9c5146105e1578063f2fde38b1461061e576101b7565b8063c6682862146104f8578063c87b56dd14610523578063e003238314610560576101b7565b806399c6fe73116100c657806399c6fe731461045d578063a22cb46514610488578063b88d4fde146104b1578063bdb4b848146104cd576101b7565b8063715018a6146103f05780638da5cb5b1461040757806395d89b4114610432576101b7565b8063388f09251161015957806342842e0e1161013357806342842e0e1461032f5780636352211e1461034b5780636c0360eb1461038857806370a08231146103b3576101b7565b8063388f0925146102e05780633ccfd60b1461030957806340c10f1914610313576101b7565b8063081812fc11610195578063081812fc14610240578063095ea7b31461027d57806318160ddd1461029957806323b872dd146102c4576101b7565b806301ffc9a7146101bc57806305813e33146101f957806306fdde0314610215575b600080fd5b3480156101c857600080fd5b506101e360048036038101906101de9190612553565b610647565b6040516101f091906128e9565b60405180910390f35b610213600480360381019061020e91906125ad565b6106d9565b005b34801561022157600080fd5b5061022a610753565b604051610237919061291f565b60405180910390f35b34801561024c57600080fd5b50610267600480360381019061026291906125ad565b6107e5565b6040516102749190612822565b60405180910390f35b610297600480360381019061029291906124e6565b610864565b005b3480156102a557600080fd5b506102ae6109a8565b6040516102bb9190612a41565b60405180910390f35b6102de60048036038101906102d991906123d0565b6109bf565b005b3480156102ec57600080fd5b50610307600480360381019061030291906124e6565b610ce4565b005b610311610fa5565b005b61032d600480360381019061032891906124e6565b610fed565b005b610349600480360381019061034491906123d0565b6110c6565b005b34801561035757600080fd5b50610372600480360381019061036d91906125ad565b6110e6565b60405161037f9190612822565b60405180910390f35b34801561039457600080fd5b5061039d6110f8565b6040516103aa919061291f565b60405180910390f35b3480156103bf57600080fd5b506103da60048036038101906103d59190612363565b611186565b6040516103e79190612a41565b60405180910390f35b3480156103fc57600080fd5b5061040561123f565b005b34801561041357600080fd5b5061041c611253565b6040516104299190612822565b60405180910390f35b34801561043e57600080fd5b5061044761127c565b604051610454919061291f565b60405180910390f35b34801561046957600080fd5b5061047261130e565b60405161047f9190612904565b60405180910390f35b34801561049457600080fd5b506104af60048036038101906104aa91906124a6565b611334565b005b6104cb60048036038101906104c69190612423565b61143f565b005b3480156104d957600080fd5b506104e26114b2565b6040516104ef9190612a41565b60405180910390f35b34801561050457600080fd5b5061050d6114b8565b60405161051a919061291f565b60405180910390f35b34801561052f57600080fd5b5061054a600480360381019061054591906125ad565b611546565b604051610557919061291f565b60405180910390f35b34801561056c57600080fd5b506105756115e5565b6040516105829190612a41565b60405180910390f35b34801561059757600080fd5b506105a0611606565b6040516105ad9190612a41565b60405180910390f35b3480156105c257600080fd5b506105cb61160c565b6040516105d89190612a41565b60405180910390f35b3480156105ed57600080fd5b5061060860048036038101906106039190612390565b6116be565b60405161061591906128e9565b60405180910390f35b34801561062a57600080fd5b5061064560048036038101906106409190612363565b611752565b005b60006301ffc9a760e01b827bffffffffffffffffffffffffffffffffffffffffffffffffffffffff191614806106a257506380ac58cd60e01b827bffffffffffffffffffffffffffffffffffffffffffffffffffffffff1916145b806106d25750635b5e139f60e01b827bffffffffffffffffffffffffffffffffffffffffffffffffffffffff1916145b9050919050565b3373ffffffffffffffffffffffffffffffffffffffff163273ffffffffffffffffffffffffffffffffffffffff1614610747576040517f08c379a000000000000000000000000000000000000000000000000000000000815260040161073e90612981565b60405180910390fd5b610750816117d6565b50565b60606003805461076290612c6f565b80601f016020809104026020016040519081016040528092919081815260200182805461078e90612c6f565b80156107db5780601f106107b0576101008083540402835291602001916107db565b820191906000526020600020905b8154815290600101906020018083116107be57829003601f168201915b5050505050905090565b60006107f0826117e4565b610826576040517fcf4700e400000000000000000000000000000000000000000000000000000000815260040160405180910390fd5b6007600083815260200190815260200160002060000160009054906101000a900473ffffffffffffffffffffffffffffffffffffffff169050919050565b600061086f826110e6565b90508073ffffffffffffffffffffffffffffffffffffffff16610890611843565b73ffffffffffffffffffffffffffffffffffffffff16146108f3576108bc816108b7611843565b6116be565b6108f2576040517fcfb3b94200000000000000000000000000000000000000000000000000000000815260040160405180910390fd5b5b826007600084815260200190815260200160002060000160006101000a81548173ffffffffffffffffffffffffffffffffffffffff021916908373ffffffffffffffffffffffffffffffffffffffff160217905550818373ffffffffffffffffffffffffffffffffffffffff168273ffffffffffffffffffffffffffffffffffffffff167f8c5be1e5ebec7d5bd14f71427d1e84f3dd0314c0f7b2291e5b200ac8c7c3b92560405160405180910390a4505050565b60006109b261184b565b6002546001540303905090565b60006109ca82611850565b90508373ffffffffffffffffffffffffffffffffffffffff168173ffffffffffffffffffffffffffffffffffffffff1614610a31576040517fa114810000000000000000000000000000000000000000000000000000000000815260040160405180910390fd5b600080610a3d8461191e565b91509150610a538187610a4e611843565b611945565b610a9f57610a6886610a63611843565b6116be565b610a9e576040517f59c896be00000000000000000000000000000000000000000000000000000000815260040160405180910390fd5b5b600073ffffffffffffffffffffffffffffffffffffffff168573ffffffffffffffffffffffffffffffffffffffff161415610b06576040517fea553b3400000000000000000000000000000000000000000000000000000000815260040160405180910390fd5b610b138686866001611989565b8015610b1e57600082555b600660008773ffffffffffffffffffffffffffffffffffffffff1673ffffffffffffffffffffffffffffffffffffffff168152602001908152602001600020600081546001900391905081905550600660008673ffffffffffffffffffffffffffffffffffffffff1673ffffffffffffffffffffffffffffffffffffffff1681526020019081526020016000206000815460010191905081905550610bec85610bc888888761198f565b7c0200000000000000000000000000000000000000000000000000000000176119b7565b600560008681526020019081526020016000208190555060007c020000000000000000000000000000000000000000000000000000000084161415610c74576000600185019050600060056000838152602001908152602001600020541415610c72576001548114610c71578360056000838152602001908152602001600020819055505b5b505b838573ffffffffffffffffffffffffffffffffffffffff168773ffffffffffffffffffffffffffffffffffffffff167fddf252ad1be2c89b69c2b068fc378daa952ba7f163c4a11628f55a4df523b3ef60405160405180910390a4610cdc86868660016119e2565b505050505050565b610cec6119e8565b3373ffffffffffffffffffffffffffffffffffffffff163273ffffffffffffffffffffffffffffffffffffffff1614610d5a576040517f08c379a0000000000000000000000000000000000000000000000000000000008152600401610d5190612981565b60405180910390fd5b60008111610d9d576040517f08c379a0000000000000000000000000000000000000000000000000000000008152600401610d9490612a01565b60405180910390fd5b600081600b54610dad9190612af5565b905080600a60009054906101000a900473ffffffffffffffffffffffffffffffffffffffff1673ffffffffffffffffffffffffffffffffffffffff1663dd62ed3e33306040518363ffffffff1660e01b8152600401610e0d92919061283d565b60206040518083038186803b158015610e2557600080fd5b505afa158015610e39573d6000803e3d6000fd5b505050506040513d601f19601f82011682018060405250810190610e5d91906125da565b1015610e9e576040517f08c379a0000000000000000000000000000000000000000000000000000000008152600401610e95906129e1565b60405180910390fd5b600a60009054906101000a900473ffffffffffffffffffffffffffffffffffffffff1673ffffffffffffffffffffffffffffffffffffffff166323b872dd3330846040518463ffffffff1660e01b8152600401610efd93929190612866565b602060405180830381600087803b158015610f1757600080fd5b505af1158015610f2b573d6000803e3d6000fd5b505050506040513d601f19601f82011682018060405250810190610f4f9190612526565b610f8e576040517f08c379a0000000000000000000000000000000000000000000000000000000008152600401610f85906129c1565b60405180910390fd5b610f988383611a38565b50610fa1611a56565b5050565b610fad611a60565b3373ffffffffffffffffffffffffffffffffffffffff166108fc479081150290604051600060405180830381858888f19350505050610feb57600080fd5b565b3373ffffffffffffffffffffffffffffffffffffffff163273ffffffffffffffffffffffffffffffffffffffff161461105b576040517f08c379a000000000000000000000000000000000000000000000000000000000815260040161105290612981565b60405180910390fd5b6000811161106857600080fd5b80600b546110769190612af5565b3410156110b8576040517f08c379a00000000000000000000000000000000000000000000000000000000081526004016110af90612961565b60405180910390fd5b6110c28282611a38565b5050565b6110e18383836040518060200160405280600081525061143f565b505050565b60006110f182611850565b9050919050565b600d805461110590612c6f565b80601f016020809104026020016040519081016040528092919081815260200182805461113190612c6f565b801561117e5780601f106111535761010080835404028352916020019161117e565b820191906000526020600020905b81548152906001019060200180831161116157829003601f168201915b505050505081565b60008073ffffffffffffffffffffffffffffffffffffffff168273ffffffffffffffffffffffffffffffffffffffff1614156111ee576040517f8f4eb60400000000000000000000000000000000000000000000000000000000815260040160405180910390fd5b67ffffffffffffffff600660008473ffffffffffffffffffffffffffffffffffffffff1673ffffffffffffffffffffffffffffffffffffffff16815260200190815260200160002054169050919050565b611247611a60565b6112516000611ade565b565b60008060009054906101000a900473ffffffffffffffffffffffffffffffffffffffff16905090565b60606004805461128b90612c6f565b80601f01602080910402602001604051908101604052809291908181526020018280546112b790612c6f565b80156113045780601f106112d957610100808354040283529160200191611304565b820191906000526020600020905b8154815290600101906020018083116112e757829003601f168201915b5050505050905090565b600a60009054906101000a900473ffffffffffffffffffffffffffffffffffffffff1681565b8060086000611341611843565b73ffffffffffffffffffffffffffffffffffffffff1673ffffffffffffffffffffffffffffffffffffffff16815260200190815260200160002060008473ffffffffffffffffffffffffffffffffffffffff1673ffffffffffffffffffffffffffffffffffffffff16815260200190815260200160002060006101000a81548160ff0219169083151502179055508173ffffffffffffffffffffffffffffffffffffffff166113ee611843565b73ffffffffffffffffffffffffffffffffffffffff167f17307eab39ab6107e8899845ad3d59bd9653f200f220920489ca2b5937696c318360405161143391906128e9565b60405180910390a35050565b61144a8484846109bf565b60008373ffffffffffffffffffffffffffffffffffffffff163b146114ac5761147584848484611ba2565b6114ab576040517fd1a57ed600000000000000000000000000000000000000000000000000000000815260040160405180910390fd5b5b50505050565b600b5481565b600e80546114c590612c6f565b80601f01602080910402602001604051908101604052809291908181526020018280546114f190612c6f565b801561153e5780601f106115135761010080835404028352916020019161153e565b820191906000526020600020905b81548152906001019060200180831161152157829003601f168201915b505050505081565b6060611551826117e4565b611587576040517fa14c4b5000000000000000000000000000000000000000000000000000000000815260040160405180910390fd5b6000611591611d02565b90506000815114156115b257604051806020016040528060008152506115dd565b806115bc84611d19565b6040516020016115cd9291906127fe565b6040516020818303038152906040525b915050919050565b60006115ef611d72565b6115f7611d7c565b6116019190612b4f565b905090565b600c5481565b6000600a60009054906101000a900473ffffffffffffffffffffffffffffffffffffffff1673ffffffffffffffffffffffffffffffffffffffff166370a08231306040518263ffffffff1660e01b81526004016116699190612822565b60206040518083038186803b15801561168157600080fd5b505afa158015611695573d6000803e3d6000fd5b505050506040513d601f19601f820116820180604052508101906116b991906125da565b905090565b6000600860008473ffffffffffffffffffffffffffffffffffffffff1673ffffffffffffffffffffffffffffffffffffffff16815260200190815260200160002060008373ffffffffffffffffffffffffffffffffffffffff1673ffffffffffffffffffffffffffffffffffffffff16815260200190815260200160002060009054906101000a900460ff16905092915050565b61175a611a60565b600073ffffffffffffffffffffffffffffffffffffffff168173ffffffffffffffffffffffffffffffffffffffff1614156117ca576040517f08c379a00000000000000000000000000000000000000000000000000000000081526004016117c190612941565b60405180910390fd5b6117d381611ade565b50565b6117e1816000611d8f565b50565b6000816117ef61184b565b111580156117fe575060015482105b801561183c575060007c0100000000000000000000000000000000000000000000000000000000600560008581526020019081526020016000205416145b9050919050565b600033905090565b600090565b6000808290508061185f61184b565b116118e7576001548110156118e65760006005600083815260200190815260200160002054905060007c0100000000000000000000000000000000000000000000000000000000821614156118e4575b60008114156118da5760056000836001900393508381526020019081526020016000205490506118af565b8092505050611919565b505b5b6040517fdf2d9b4200000000000000000000000000000000000000000000000000000000815260040160405180910390fd5b919050565b60008060006007600085815260200190815260200160002090508092508254915050915091565b600073ffffffffffffffffffffffffffffffffffffffff8316925073ffffffffffffffffffffffffffffffffffffffff821691508382148383141790509392505050565b50505050565b60008060e883901c905060e86119a6868684611fe3565b62ffffff16901b9150509392505050565b600073ffffffffffffffffffffffffffffffffffffffff83169250814260a01b178317905092915050565b50505050565b60026009541415611a2e576040517f08c379a0000000000000000000000000000000000000000000000000000000008152600401611a2590612a21565b60405180910390fd5b6002600981905550565b611a52828260405180602001604052806000815250611fec565b5050565b6001600981905550565b611a6861208a565b73ffffffffffffffffffffffffffffffffffffffff16611a86611253565b73ffffffffffffffffffffffffffffffffffffffff1614611adc576040517f08c379a0000000000000000000000000000000000000000000000000000000008152600401611ad3906129a1565b60405180910390fd5b565b60008060009054906101000a900473ffffffffffffffffffffffffffffffffffffffff169050816000806101000a81548173ffffffffffffffffffffffffffffffffffffffff021916908373ffffffffffffffffffffffffffffffffffffffff1602179055508173ffffffffffffffffffffffffffffffffffffffff168173ffffffffffffffffffffffffffffffffffffffff167f8be0079c531659141344cd1fd0a4f28419497f9722a3daafe3b4186f6b6457e060405160405180910390a35050565b60008373ffffffffffffffffffffffffffffffffffffffff1663150b7a02611bc8611843565b8786866040518563ffffffff1660e01b8152600401611bea949392919061289d565b602060405180830381600087803b158015611c0457600080fd5b505af1925050508015611c3557506040513d601f19601f82011682018060405250810190611c329190612580565b60015b611caf573d8060008114611c65576040519150601f19603f3d011682016040523d82523d6000602084013e611c6a565b606091505b50600081511415611ca7576040517fd1a57ed600000000000000000000000000000000000000000000000000000000815260040160405180910390fd5b805181602001fd5b63150b7a0260e01b7bffffffffffffffffffffffffffffffffffffffffffffffffffffffff1916817bffffffffffffffffffffffffffffffffffffffffffffffffffffffff191614915050949350505050565b606060405180602001604052806000815250905090565b606060a060405101806040526020810391506000825281835b600115611d5d57600184039350600a81066030018453600a8104905080611d5857611d5d565b611d32565b50828103602084039350808452505050919050565b6000600254905090565b6000611d8661184b565b60015403905090565b6000611d9a83611850565b90506000819050600080611dad8661191e565b915091508415611e1657611dc98184611dc4611843565b611945565b611e1557611dde83611dd9611843565b6116be565b611e14576040517f59c896be00000000000000000000000000000000000000000000000000000000815260040160405180910390fd5b5b5b611e24836000886001611989565b8015611e2f57600082555b600160806001901b03600660008573ffffffffffffffffffffffffffffffffffffffff1673ffffffffffffffffffffffffffffffffffffffff16815260200190815260200160002060008282540192505081905550611ed783611e948560008861198f565b7c02000000000000000000000000000000000000000000000000000000007c010000000000000000000000000000000000000000000000000000000017176119b7565b600560008881526020019081526020016000208190555060007c020000000000000000000000000000000000000000000000000000000085161415611f5f576000600187019050600060056000838152602001908152602001600020541415611f5d576001548114611f5c578460056000838152602001908152602001600020819055505b5b505b85600073ffffffffffffffffffffffffffffffffffffffff168473ffffffffffffffffffffffffffffffffffffffff167fddf252ad1be2c89b69c2b068fc378daa952ba7f163c4a11628f55a4df523b3ef60405160405180910390a4611fc98360008860016119e2565b600260008154809291906001019190505550505050505050565b60009392505050565b611ff68383612092565b60008373ffffffffffffffffffffffffffffffffffffffff163b146120855760006001549050600083820390505b6120376000868380600101945086611ba2565b61206d576040517fd1a57ed600000000000000000000000000000000000000000000000000000000815260040160405180910390fd5b81811061202457816001541461208257600080fd5b50505b505050565b600033905090565b6000600154905060008214156120d4576040517fb562e8dd00000000000000000000000000000000000000000000000000000000815260040160405180910390fd5b6120e16000848385611989565b600160406001901b178202600660008573ffffffffffffffffffffffffffffffffffffffff1673ffffffffffffffffffffffffffffffffffffffff1681526020019081526020016000206000828254019250508190555061215883612149600086600061198f565b61215285612250565b176119b7565b6005600083815260200190815260200160002081905550600080838301905073ffffffffffffffffffffffffffffffffffffffff85169150828260007fddf252ad1be2c89b69c2b068fc378daa952ba7f163c4a11628f55a4df523b3ef600080a4600183015b8181146121f957808360007fddf252ad1be2c89b69c2b068fc378daa952ba7f163c4a11628f55a4df523b3ef600080a46001810190506121be565b506000821415612235576040517f2e07630000000000000000000000000000000000000000000000000000000000815260040160405180910390fd5b80600181905550505061224b60008483856119e2565b505050565b60006001821460e11b9050919050565b600061227361226e84612a81565b612a5c565b90508281526020810184848401111561228f5761228e612d64565b5b61229a848285612c2d565b509392505050565b6000813590506122b181612ef2565b92915050565b6000813590506122c681612f09565b92915050565b6000815190506122db81612f09565b92915050565b6000813590506122f081612f20565b92915050565b60008151905061230581612f20565b92915050565b600082601f8301126123205761231f612d5f565b5b8135612330848260208601612260565b91505092915050565b60008135905061234881612f37565b92915050565b60008151905061235d81612f37565b92915050565b60006020828403121561237957612378612d6e565b5b6000612387848285016122a2565b91505092915050565b600080604083850312156123a7576123a6612d6e565b5b60006123b5858286016122a2565b92505060206123c6858286016122a2565b9150509250929050565b6000806000606084860312156123e9576123e8612d6e565b5b60006123f7868287016122a2565b9350506020612408868287016122a2565b925050604061241986828701612339565b9150509250925092565b6000806000806080858703121561243d5761243c612d6e565b5b600061244b878288016122a2565b945050602061245c878288016122a2565b935050604061246d87828801612339565b925050606085013567ffffffffffffffff81111561248e5761248d612d69565b5b61249a8782880161230b565b91505092959194509250565b600080604083850312156124bd576124bc612d6e565b5b60006124cb858286016122a2565b92505060206124dc858286016122b7565b9150509250929050565b600080604083850312156124fd576124fc612d6e565b5b600061250b858286016122a2565b925050602061251c85828601612339565b9150509250929050565b60006020828403121561253c5761253b612d6e565b5b600061254a848285016122cc565b91505092915050565b60006020828403121561256957612568612d6e565b5b6000612577848285016122e1565b91505092915050565b60006020828403121561259657612595612d6e565b5b60006125a4848285016122f6565b91505092915050565b6000602082840312156125c3576125c2612d6e565b5b60006125d184828501612339565b91505092915050565b6000602082840312156125f0576125ef612d6e565b5b60006125fe8482850161234e565b91505092915050565b61261081612b83565b82525050565b61261f81612b95565b82525050565b600061263082612ab2565b61263a8185612ac8565b935061264a818560208601612c3c565b61265381612d73565b840191505092915050565b61266781612bf7565b82525050565b600061267882612abd565b6126828185612ad9565b9350612692818560208601612c3c565b61269b81612d73565b840191505092915050565b60006126b182612abd565b6126bb8185612aea565b93506126cb818560208601612c3c565b80840191505092915050565b60006126e4602683612ad9565b91506126ef82612d84565b604082019050919050565b6000612707601083612ad9565b915061271282612dd3565b602082019050919050565b600061272a601e83612ad9565b915061273582612dfc565b602082019050919050565b600061274d602083612ad9565b915061275882612e25565b602082019050919050565b6000612770601883612ad9565b915061277b82612e4e565b602082019050919050565b6000612793601683612ad9565b915061279e82612e77565b602082019050919050565b60006127b6601983612ad9565b91506127c182612ea0565b602082019050919050565b60006127d9601f83612ad9565b91506127e482612ec9565b602082019050919050565b6127f881612bed565b82525050565b600061280a82856126a6565b915061281682846126a6565b91508190509392505050565b60006020820190506128376000830184612607565b92915050565b60006040820190506128526000830185612607565b61285f6020830184612607565b9392505050565b600060608201905061287b6000830186612607565b6128886020830185612607565b61289560408301846127ef565b949350505050565b60006080820190506128b26000830187612607565b6128bf6020830186612607565b6128cc60408301856127ef565b81810360608301526128de8184612625565b905095945050505050565b60006020820190506128fe6000830184612616565b92915050565b6000602082019050612919600083018461265e565b92915050565b60006020820190508181036000830152612939818461266d565b905092915050565b6000602082019050818103600083015261295a816126d7565b9050919050565b6000602082019050818103600083015261297a816126fa565b9050919050565b6000602082019050818103600083015261299a8161271d565b9050919050565b600060208201905081810360008301526129ba81612740565b9050919050565b600060208201905081810360008301526129da81612763565b9050919050565b600060208201905081810360008301526129fa81612786565b9050919050565b60006020820190508181036000830152612a1a816127a9565b9050919050565b60006020820190508181036000830152612a3a816127cc565b9050919050565b6000602082019050612a5660008301846127ef565b92915050565b6000612a66612a77565b9050612a728282612ca1565b919050565b6000604051905090565b600067ffffffffffffffff821115612a9c57612a9b612d30565b5b612aa582612d73565b9050602081019050919050565b600081519050919050565b600081519050919050565b600082825260208201905092915050565b600082825260208201905092915050565b600081905092915050565b6000612b0082612bed565b9150612b0b83612bed565b9250817fffffffffffffffffffffffffffffffffffffffffffffffffffffffffffffffff0483118215151615612b4457612b43612cd2565b5b828202905092915050565b6000612b5a82612bed565b9150612b6583612bed565b925082821015612b7857612b77612cd2565b5b828203905092915050565b6000612b8e82612bcd565b9050919050565b60008115159050919050565b60007fffffffff0000000000000000000000000000000000000000000000000000000082169050919050565b600073ffffffffffffffffffffffffffffffffffffffff82169050919050565b6000819050919050565b6000612c0282612c09565b9050919050565b6000612c1482612c1b565b9050919050565b6000612c2682612bcd565b9050919050565b82818337600083830152505050565b60005b83811015612c5a578082015181840152602081019050612c3f565b83811115612c69576000848401525b50505050565b60006002820490506001821680612c8757607f821691505b60208210811415612c9b57612c9a612d01565b5b50919050565b612caa82612d73565b810181811067ffffffffffffffff82111715612cc957612cc8612d30565b5b80604052505050565b7f4e487b7100000000000000000000000000000000000000000000000000000000600052601160045260246000fd5b7f4e487b7100000000000000000000000000000000000000000000000000000000600052602260045260246000fd5b7f4e487b7100000000000000000000000000000000000000000000000000000000600052604160045260246000fd5b600080fd5b600080fd5b600080fd5b600080fd5b6000601f19601f8301169050919050565b7f4f776e61626c653a206e6577206f776e657220697320746865207a65726f206160008201527f6464726573730000000000000000000000000000000000000000000000000000602082015250565b7f4e6f7420656e6f7567682066756e647300000000000000000000000000000000600082015250565b7f5468652063616c6c657220697320616e6f7468657220636f6e74726163740000600082015250565b7f4f776e61626c653a2063616c6c6572206973206e6f7420746865206f776e6572600082015250565b7f446f63546f6b656e207472616e73666572206661696c65640000000000000000600082015250565b7f417070726f766520446f63546f6b656e20666972737400000000000000000000600082015250565b7f5175616e74697479206d75737420626520706f73697469766500000000000000600082015250565b7f5265656e7472616e637947756172643a207265656e7472616e742063616c6c00600082015250565b612efb81612b83565b8114612f0657600080fd5b50565b612f1281612b95565b8114612f1d57600080fd5b50565b612f2981612ba1565b8114612f3457600080fd5b50565b612f4081612bed565b8114612f4b57600080fd5b5056fea2646970667358221220758174613f50b6a7e19f01385a6468898517b40823c0045d742ca93508181d5364736f6c63430008070033",
  "linkReferences": {},
  "deployedLinkReferences": {}
}