{
  "_format": "hh-sol-artifact-1",
  "contractName": "LottoTickets",
  "sourceName": "contracts/LotoTickets.sol",
  "abi": [
    {
      "inputs": [
        {
          "internalType": "string",
          "name": "_initBaseURI",
          "type": "string"
        },
        {
          "internalType": "address payable",
          "name": "_docTokenAddress",
          "type": "address"
        }
      ],
      "stateMutability": "nonpayable",
      "type": "constructor"
    },
    {
      "inputs": [],
      "name": "ApprovalCallerNotOwnerNorApproved",
      "type": "error"
    },
    {
      "inputs": [],
      "name": "ApprovalQueryForNonexistentToken",
      "type": "error"
    },
    {
      "inputs": [],
      "name": "BalanceQueryForZeroAddress",
      "type": "error"
    },
    {
      "inputs": [],
      "name": "MintERC2309QuantityExceedsLimit",
      "type": "error"
    },
    {
      "inputs": [],
      "name": "MintToZeroAddress",
      "type": "error"
    },
    {
      "inputs": [],
      "name": "MintZeroQuantity",
      "type": "error"
    },
    {
      "inputs": [],
      "name": "OwnerQueryForNonexistentToken",
      "type": "error"
    },
    {
      "inputs": [],
      "name": "OwnershipNotInitializedForExtraData",
      "type": "error"
    },
    {
      "inputs": [],
      "name": "TransferCallerNotOwnerNorApproved",
      "type": "error"
    },
    {
      "inputs": [],
      "name": "TransferFromIncorrectOwner",
      "type": "error"
    },
    {
      "inputs": [],
      "name": "TransferToNonERC721ReceiverImplementer",
      "type": "error"
    },
    {
      "inputs": [],
      "name": "TransferToZeroAddress",
      "type": "error"
    },
    {
      "inputs": [],
      "name": "URIQueryForNonexistentToken",
      "type": "error"
    },
    {
      "anonymous": false,
      "inputs": [
        {
          "indexed": true,
          "internalType": "address",
          "name": "owner",
          "type": "address"
        },
        {
          "indexed": true,
          "internalType": "address",
          "name": "approved",
          "type": "address"
        },
        {
          "indexed": true,
          "internalType": "uint256",
          "name": "tokenId",
          "type": "uint256"
        }
      ],
      "name": "Approval",
      "type": "event"
    },
    {
      "anonymous": false,
      "inputs": [
        {
          "indexed": true,
          "internalType": "address",
          "name": "owner",
          "type": "address"
        },
        {
          "indexed": true,
          "internalType": "address",
          "name": "operator",
          "type": "address"
        },
        {
          "indexed": false,
          "internalType": "bool",
          "name": "approved",
          "type": "bool"
        }
      ],
      "name": "ApprovalForAll",
      "type": "event"
    },
    {
      "anonymous": false,
      "inputs": [
        {
          "indexed": true,
          "internalType": "uint256",
          "name": "fromTokenId",
          "type": "uint256"
        },
        {
          "indexed": false,
          "internalType": "uint256",
          "name": "toTokenId",
          "type": "uint256"
        },
        {
          "indexed": true,
          "internalType": "address",
          "name": "from",
          "type": "address"
        },
        {
          "indexed": true,
          "internalType": "address",
          "name": "to",
          "type": "address"
        }
      ],
      "name": "ConsecutiveTransfer",
      "type": "event"
    },
    {
      "anonymous": false,
      "inputs": [
        {
          "indexed": true,
          "internalType": "address",
          "name": "previousOwner",
          "type": "address"
        },
        {
          "indexed": true,
          "internalType": "address",
          "name": "newOwner",
          "type": "address"
        }
      ],
      "name": "OwnershipTransferred",
      "type": "event"
    },
    {
      "anonymous": false,
      "inputs": [
        {
          "indexed": true,
          "internalType": "address",
          "name": "from",
          "type": "address"
        },
        {
          "indexed": true,
          "internalType": "address",
          "name": "to",
          "type": "address"
        },
        {
          "indexed": true,
          "internalType": "uint256",
          "name": "tokenId",
          "type": "uint256"
        }
      ],
      "name": "Transfer",
      "type": "event"
    },
    {
      "inputs": [
        {
          "internalType": "address",
          "name": "to",
          "type": "address"
        },
        {
          "internalType": "uint256",
          "name": "tokenId",
          "type": "uint256"
        }
      ],
      "name": "approve",
      "outputs": [],
      "stateMutability": "payable",
      "type": "function"
    },
    {
      "inputs": [
        {
          "internalType": "address",
          "name": "owner",
          "type": "address"
        }
      ],
      "name": "balanceOf",
      "outputs": [
        {
          "internalType": "uint256",
          "name": "",
          "type": "uint256"
        }
      ],
      "stateMutability": "view",
      "type": "function"
    },
    {
      "inputs": [],
      "name": "baseExtension",
      "outputs": [
        {
          "internalType": "string",
          "name": "",
          "type": "string"
        }
      ],
      "stateMutability": "view",
      "type": "function"
    },
    {
      "inputs": [],
      "name": "baseURI",
      "outputs": [
        {
          "internalType": "string",
          "name": "",
          "type": "string"
        }
      ],
      "stateMutability": "view",
      "type": "function"
    },
    {
      "inputs": [
        {
          "internalType": "uint256",
          "name": "tokenId",
          "type": "uint256"
        }
      ],
      "name": "burnOneToken",
      "outputs": [],
      "stateMutability": "payable",
      "type": "function"
    },
    {
      "inputs": [],
      "name": "docToken",
      "outputs": [
        {
          "internalType": "contract DocToken",
          "name": "",
          "type": "address"
        }
      ],
      "stateMutability": "view",
      "type": "function"
    },
    {
      "inputs": [
        {
          "internalType": "uint256",
          "name": "tokenId",
          "type": "uint256"
        }
      ],
      "name": "getApproved",
      "outputs": [
        {
          "internalType": "address",
          "name": "",
          "type": "address"
        }
      ],
      "stateMutability": "view",
      "type": "function"
    },
    {
      "inputs": [],
      "name": "getCapital",
      "outputs": [
        {
          "internalType": "uint256",
          "name": "",
          "type": "uint256"
        }
      ],
      "stateMutability": "view",
      "type": "function"
    },
    {
      "inputs": [
        {
          "internalType": "address",
          "name": "owner",
          "type": "address"
        },
        {
          "internalType": "address",
          "name": "operator",
          "type": "address"
        }
      ],
      "name": "isApprovedForAll",
      "outputs": [
        {
          "internalType": "bool",
          "name": "",
          "type": "bool"
        }
      ],
      "stateMutability": "view",
      "type": "function"
    },
    {
      "inputs": [
        {
          "internalType": "address",
          "name": "_to",
          "type": "address"
        },
        {
          "internalType": "uint256",
          "name": "quantity",
          "type": "uint256"
        }
      ],
      "name": "mint",
      "outputs": [],
      "stateMutability": "payable",
      "type": "function"
    },
    {
      "inputs": [],
      "name": "mintCost",
      "outputs": [
        {
          "internalType": "uint256",
          "name": "",
          "type": "uint256"
        }
      ],
      "stateMutability": "view",
      "type": "function"
    },
    {
      "inputs": [
        {
          "internalType": "address",
          "name": "_to",
          "type": "address"
        },
        {
          "internalType": "uint256",
          "name": "quantity",
          "type": "uint256"
        }
      ],
      "name": "mintWithDOC",
      "outputs": [],
      "stateMutability": "nonpayable",
      "type": "function"
    },
    {
      "inputs": [],
      "name": "name",
      "outputs": [
        {
          "internalType": "string",
          "name": "",
          "type": "string"
        }
      ],
      "stateMutability": "view",
      "type": "function"
    },
    {
      "inputs": [],
      "name": "owner",
      "outputs": [
        {
          "internalType": "address",
          "name": "",
          "type": "address"
        }
      ],
      "stateMutability": "view",
      "type": "function"
    },
    {
      "inputs": [
        {
          "internalType": "uint256",
          "name": "tokenId",
          "type": "uint256"
        }
      ],
      "name": "ownerOf",
      "outputs": [
        {
          "internalType": "address",
          "name": "",
          "type": "address"
        }
      ],
      "stateMutability": "view",
      "type": "function"
    },
    {
      "inputs": [],
      "name": "renounceOwnership",
      "outputs": [],
      "stateMutability": "nonpayable",
      "type": "function"
    },
    {
      "inputs": [
        {
          "internalType": "address",
          "name": "from",
          "type": "address"
        },
        {
          "internalType": "address",
          "name": "to",
          "type": "address"
        },
        {
          "internalType": "uint256",
          "name": "tokenId",
          "type": "uint256"
        }
      ],
      "name": "safeTransferFrom",
      "outputs": [],
      "stateMutability": "payable",
      "type": "function"
    },
    {
      "inputs": [
        {
          "internalType": "address",
          "name": "from",
          "type": "address"
        },
        {
          "internalType": "address",
          "name": "to",
          "type": "address"
        },
        {
          "internalType": "uint256",
          "name": "tokenId",
          "type": "uint256"
        },
        {
          "internalType": "bytes",
          "name": "_data",
          "type": "bytes"
        }
      ],
      "name": "safeTransferFrom",
      "outputs": [],
      "stateMutability": "payable",
      "type": "function"
    },
    {
      "inputs": [
        {
          "internalType": "address",
          "name": "operator",
          "type": "address"
        },
        {
          "internalType": "bool",
          "name": "approved",
          "type": "bool"
        }
      ],
      "name": "setApprovalForAll",
      "outputs": [],
      "stateMutability": "nonpayable",
      "type": "function"
    },
    {
      "inputs": [],
      "name": "supplyTotal",
      "outputs": [
        {
          "internalType": "uint256",
          "name": "",
          "type": "uint256"
        }
      ],
      "stateMutability": "view",
      "type": "function"
    },
    {
      "inputs": [
        {
          "internalType": "bytes4",
          "name": "interfaceId",
          "type": "bytes4"
        }
      ],
      "name": "supportsInterface",
      "outputs": [
        {
          "internalType": "bool",
          "name": "",
          "type": "bool"
        }
      ],
      "stateMutability": "view",
      "type": "function"
    },
    {
      "inputs": [],
      "name": "symbol",
      "outputs": [
        {
          "internalType": "string",
          "name": "",
          "type": "string"
        }
      ],
      "stateMutability": "view",
      "type": "function"
    },
    {
      "inputs": [
        {
          "internalType": "uint256",
          "name": "tokenId",
          "type": "uint256"
        }
      ],
      "name": "tokenURI",
      "outputs": [
        {
          "internalType": "string",
          "name": "",
          "type": "string"
        }
      ],
      "stateMutability": "view",
      "type": "function"
    },
    {
      "inputs": [],
      "name": "totalSupply",
      "outputs": [
        {
          "internalType": "uint256",
          "name": "",
          "type": "uint256"
        }
      ],
      "stateMutability": "view",
      "type": "function"
    },
    {
      "inputs": [
        {
          "internalType": "address",
          "name": "from",
          "type": "address"
        },
        {
          "internalType": "address",
          "name": "to",
          "type": "address"
        },
        {
          "internalType": "uint256",
          "name": "tokenId",
          "type": "uint256"
        }
      ],
      "name": "transferFrom",
      "outputs": [],
      "stateMutability": "payable",
      "type": "function"
    },
    {
      "inputs": [
        {
          "internalType": "address",
          "name": "newOwner",
          "type": "address"
        }
      ],
      "name": "transferOwnership",
      "outputs": [],
      "stateMutability": "nonpayable",
      "type": "function"
    },
    {
      "inputs": [],
      "name": "withdraw",
      "outputs": [],
      "stateMutability": "payable",
      "type": "function"
    }
  ],
  "bytecode": "0x60806040526001600b556040518060400160405280600581526020017f2e6a736f6e000000000000000000000000000000000000000000000000000000815250600e90805190602001906200005692919062000379565b503480156200006457600080fd5b50604051620036153803806200361583398181016040528101906200008a9190620004be565b6040518060400160405280600c81526020017f4c6f74746f5469636b65747300000000000000000000000000000000000000008152506040518060400160405280600281526020017f4c54000000000000000000000000000000000000000000000000000000000000815250620001166200010a620001c260201b60201c565b620001ca60201b60201c565b81600390805190602001906200012e92919062000379565b5080600490805190602001906200014792919062000379565b50620001586200028e60201b60201c565b6001819055505050600160098190555062000179826200029360201b60201c565b80600a60006101000a81548173ffffffffffffffffffffffffffffffffffffffff021916908373ffffffffffffffffffffffffffffffffffffffff160217905550505062000779565b600033905090565b60008060009054906101000a900473ffffffffffffffffffffffffffffffffffffffff169050816000806101000a81548173ffffffffffffffffffffffffffffffffffffffff021916908373ffffffffffffffffffffffffffffffffffffffff1602179055508173ffffffffffffffffffffffffffffffffffffffff168173ffffffffffffffffffffffffffffffffffffffff167f8be0079c531659141344cd1fd0a4f28419497f9722a3daafe3b4186f6b6457e060405160405180910390a35050565b600090565b620002a3620002bf60201b60201c565b80600d9080519060200190620002bb92919062000379565b5050565b620002cf620001c260201b60201c565b73ffffffffffffffffffffffffffffffffffffffff16620002f56200035060201b60201c565b73ffffffffffffffffffffffffffffffffffffffff16146200034e576040517f08c379a000000000000000000000000000000000000000000000000000000000815260040162000345906200054b565b60405180910390fd5b565b60008060009054906101000a900473ffffffffffffffffffffffffffffffffffffffff16905090565b828054620003879062000647565b90600052602060002090601f016020900481019282620003ab5760008555620003f7565b82601f10620003c657805160ff1916838001178555620003f7565b82800160010185558215620003f7579182015b82811115620003f6578251825591602001919060010190620003d9565b5b5090506200040691906200040a565b5090565b5b80821115620004255760008160009055506001016200040b565b5090565b6000620004406200043a8462000596565b6200056d565b9050828152602081018484840111156200045f576200045e62000716565b5b6200046c84828562000611565b509392505050565b60008151905062000485816200075f565b92915050565b600082601f830112620004a357620004a262000711565b5b8151620004b584826020860162000429565b91505092915050565b60008060408385031215620004d857620004d762000720565b5b600083015167ffffffffffffffff811115620004f957620004f86200071b565b5b62000507858286016200048b565b92505060206200051a8582860162000474565b9150509250929050565b600062000533602083620005cc565b9150620005408262000736565b602082019050919050565b60006020820190508181036000830152620005668162000524565b9050919050565b6000620005796200058c565b90506200058782826200067d565b919050565b6000604051905090565b600067ffffffffffffffff821115620005b457620005b3620006e2565b5b620005bf8262000725565b9050602081019050919050565b600082825260208201905092915050565b6000620005ea82620005f1565b9050919050565b600073ffffffffffffffffffffffffffffffffffffffff82169050919050565b60005b838110156200063157808201518184015260208101905062000614565b8381111562000641576000848401525b50505050565b600060028204905060018216806200066057607f821691505b60208210811415620006775762000676620006b3565b5b50919050565b620006888262000725565b810181811067ffffffffffffffff82111715620006aa57620006a9620006e2565b5b80604052505050565b7f4e487b7100000000000000000000000000000000000000000000000000000000600052602260045260246000fd5b7f4e487b7100000000000000000000000000000000000000000000000000000000600052604160045260246000fd5b600080fd5b600080fd5b600080fd5b600080fd5b6000601f19601f8301169050919050565b7f4f776e61626c653a2063616c6c6572206973206e6f7420746865206f776e6572600082015250565b6200076a81620005dd565b81146200077657600080fd5b50565b612e8c80620007896000396000f3fe60806040526004361061019c5760003560e01c806370a08231116100ec578063bdb4b8481161008a578063e003238311610064578063e003238314610545578063e651e04c14610570578063e985e9c51461059b578063f2fde38b146105d85761019c565b8063bdb4b848146104b2578063c6682862146104dd578063c87b56dd146105085761019c565b806395d89b41116100c657806395d89b411461041757806399c6fe7314610442578063a22cb4651461046d578063b88d4fde146104965761019c565b806370a0823114610398578063715018a6146103d55780638da5cb5b146103ec5761019c565b806323b872dd1161015957806340c10f191161013357806340c10f19146102f857806342842e0e146103145780636352211e146103305780636c0360eb1461036d5761019c565b806323b872dd146102a9578063388f0925146102c55780633ccfd60b146102ee5761019c565b806301ffc9a7146101a157806305813e33146101de57806306fdde03146101fa578063081812fc14610225578063095ea7b31461026257806318160ddd1461027e575b600080fd5b3480156101ad57600080fd5b506101c860048036038101906101c3919061245b565b610601565b6040516101d591906127f1565b60405180910390f35b6101f860048036038101906101f391906124b5565b610693565b005b34801561020657600080fd5b5061020f61070d565b60405161021c9190612827565b60405180910390f35b34801561023157600080fd5b5061024c600480360381019061024791906124b5565b61079f565b604051610259919061272a565b60405180910390f35b61027c600480360381019061027791906123ee565b61081e565b005b34801561028a57600080fd5b50610293610962565b6040516102a09190612949565b60405180910390f35b6102c360048036038101906102be91906122d8565b610979565b005b3480156102d157600080fd5b506102ec60048036038101906102e791906123ee565b610c9e565b005b6102f6610f5f565b005b610312600480360381019061030d91906123ee565b610fa7565b005b61032e600480360381019061032991906122d8565b611080565b005b34801561033c57600080fd5b50610357600480360381019061035291906124b5565b6110a0565b604051610364919061272a565b60405180910390f35b34801561037957600080fd5b506103826110b2565b60405161038f9190612827565b60405180910390f35b3480156103a457600080fd5b506103bf60048036038101906103ba919061226b565b611140565b6040516103cc9190612949565b60405180910390f35b3480156103e157600080fd5b506103ea6111f9565b005b3480156103f857600080fd5b5061040161120d565b60405161040e919061272a565b60405180910390f35b34801561042357600080fd5b5061042c611236565b6040516104399190612827565b60405180910390f35b34801561044e57600080fd5b506104576112c8565b604051610464919061280c565b60405180910390f35b34801561047957600080fd5b50610494600480360381019061048f91906123ae565b6112ee565b005b6104b060048036038101906104ab919061232b565b6113f9565b005b3480156104be57600080fd5b506104c761146c565b6040516104d49190612949565b60405180910390f35b3480156104e957600080fd5b506104f2611472565b6040516104ff9190612827565b60405180910390f35b34801561051457600080fd5b5061052f600480360381019061052a91906124b5565b611500565b60405161053c9190612827565b60405180910390f35b34801561055157600080fd5b5061055a61159f565b6040516105679190612949565b60405180910390f35b34801561057c57600080fd5b506105856115c0565b6040516105929190612949565b60405180910390f35b3480156105a757600080fd5b506105c260048036038101906105bd9190612298565b6115c6565b6040516105cf91906127f1565b60405180910390f35b3480156105e457600080fd5b506105ff60048036038101906105fa919061226b565b61165a565b005b60006301ffc9a760e01b827bffffffffffffffffffffffffffffffffffffffffffffffffffffffff1916148061065c57506380ac58cd60e01b827bffffffffffffffffffffffffffffffffffffffffffffffffffffffff1916145b8061068c5750635b5e139f60e01b827bffffffffffffffffffffffffffffffffffffffffffffffffffffffff1916145b9050919050565b3373ffffffffffffffffffffffffffffffffffffffff163273ffffffffffffffffffffffffffffffffffffffff1614610701576040517f08c379a00000000000000000000000000000000000000000000000000000000081526004016106f890612889565b60405180910390fd5b61070a816116de565b50565b60606003805461071c90612b77565b80601f016020809104026020016040519081016040528092919081815260200182805461074890612b77565b80156107955780601f1061076a57610100808354040283529160200191610795565b820191906000526020600020905b81548152906001019060200180831161077857829003601f168201915b5050505050905090565b60006107aa826116ec565b6107e0576040517fcf4700e400000000000000000000000000000000000000000000000000000000815260040160405180910390fd5b6007600083815260200190815260200160002060000160009054906101000a900473ffffffffffffffffffffffffffffffffffffffff169050919050565b6000610829826110a0565b90508073ffffffffffffffffffffffffffffffffffffffff1661084a61174b565b73ffffffffffffffffffffffffffffffffffffffff16146108ad576108768161087161174b565b6115c6565b6108ac576040517fcfb3b94200000000000000000000000000000000000000000000000000000000815260040160405180910390fd5b5b826007600084815260200190815260200160002060000160006101000a81548173ffffffffffffffffffffffffffffffffffffffff021916908373ffffffffffffffffffffffffffffffffffffffff160217905550818373ffffffffffffffffffffffffffffffffffffffff168273ffffffffffffffffffffffffffffffffffffffff167f8c5be1e5ebec7d5bd14f71427d1e84f3dd0314c0f7b2291e5b200ac8c7c3b92560405160405180910390a4505050565b600061096c611753565b6002546001540303905090565b600061098482611758565b90508373ffffffffffffffffffffffffffffffffffffffff168173ffffffffffffffffffffffffffffffffffffffff16146109eb576040517fa114810000000000000000000000000000000000000000000000000000000000815260040160405180910390fd5b6000806109f784611826565b91509150610a0d8187610a0861174b565b61184d565b610a5957610a2286610a1d61174b565b6115c6565b610a58576040517f59c896be00000000000000000000000000000000000000000000000000000000815260040160405180910390fd5b5b600073ffffffffffffffffffffffffffffffffffffffff168573ffffffffffffffffffffffffffffffffffffffff161415610ac0576040517fea553b3400000000000000000000000000000000000000000000000000000000815260040160405180910390fd5b610acd8686866001611891565b8015610ad857600082555b600660008773ffffffffffffffffffffffffffffffffffffffff1673ffffffffffffffffffffffffffffffffffffffff168152602001908152602001600020600081546001900391905081905550600660008673ffffffffffffffffffffffffffffffffffffffff1673ffffffffffffffffffffffffffffffffffffffff1681526020019081526020016000206000815460010191905081905550610ba685610b82888887611897565b7c0200000000000000000000000000000000000000000000000000000000176118bf565b600560008681526020019081526020016000208190555060007c020000000000000000000000000000000000000000000000000000000084161415610c2e576000600185019050600060056000838152602001908152602001600020541415610c2c576001548114610c2b578360056000838152602001908152602001600020819055505b5b505b838573ffffffffffffffffffffffffffffffffffffffff168773ffffffffffffffffffffffffffffffffffffffff167fddf252ad1be2c89b69c2b068fc378daa952ba7f163c4a11628f55a4df523b3ef60405160405180910390a4610c9686868660016118ea565b505050505050565b610ca66118f0565b3373ffffffffffffffffffffffffffffffffffffffff163273ffffffffffffffffffffffffffffffffffffffff1614610d14576040517f08c379a0000000000000000000000000000000000000000000000000000000008152600401610d0b90612889565b60405180910390fd5b60008111610d57576040517f08c379a0000000000000000000000000000000000000000000000000000000008152600401610d4e90612909565b60405180910390fd5b600081600b54610d6791906129fd565b905080600a60009054906101000a900473ffffffffffffffffffffffffffffffffffffffff1673ffffffffffffffffffffffffffffffffffffffff1663dd62ed3e33306040518363ffffffff1660e01b8152600401610dc7929190612745565b60206040518083038186803b158015610ddf57600080fd5b505afa158015610df3573d6000803e3d6000fd5b505050506040513d601f19601f82011682018060405250810190610e1791906124e2565b1015610e58576040517f08c379a0000000000000000000000000000000000000000000000000000000008152600401610e4f906128e9565b60405180910390fd5b600a60009054906101000a900473ffffffffffffffffffffffffffffffffffffffff1673ffffffffffffffffffffffffffffffffffffffff166323b872dd3330846040518463ffffffff1660e01b8152600401610eb79392919061276e565b602060405180830381600087803b158015610ed157600080fd5b505af1158015610ee5573d6000803e3d6000fd5b505050506040513d601f19601f82011682018060405250810190610f09919061242e565b610f48576040517f08c379a0000000000000000000000000000000000000000000000000000000008152600401610f3f906128c9565b60405180910390fd5b610f528383611940565b50610f5b61195e565b5050565b610f67611968565b3373ffffffffffffffffffffffffffffffffffffffff166108fc479081150290604051600060405180830381858888f19350505050610fa557600080fd5b565b3373ffffffffffffffffffffffffffffffffffffffff163273ffffffffffffffffffffffffffffffffffffffff1614611015576040517f08c379a000000000000000000000000000000000000000000000000000000000815260040161100c90612889565b60405180910390fd5b6000811161102257600080fd5b80600b5461103091906129fd565b341015611072576040517f08c379a000000000000000000000000000000000000000000000000000000000815260040161106990612869565b60405180910390fd5b61107c8282611940565b5050565b61109b838383604051806020016040528060008152506113f9565b505050565b60006110ab82611758565b9050919050565b600d80546110bf90612b77565b80601f01602080910402602001604051908101604052809291908181526020018280546110eb90612b77565b80156111385780601f1061110d57610100808354040283529160200191611138565b820191906000526020600020905b81548152906001019060200180831161111b57829003601f168201915b505050505081565b60008073ffffffffffffffffffffffffffffffffffffffff168273ffffffffffffffffffffffffffffffffffffffff1614156111a8576040517f8f4eb60400000000000000000000000000000000000000000000000000000000815260040160405180910390fd5b67ffffffffffffffff600660008473ffffffffffffffffffffffffffffffffffffffff1673ffffffffffffffffffffffffffffffffffffffff16815260200190815260200160002054169050919050565b611201611968565b61120b60006119e6565b565b60008060009054906101000a900473ffffffffffffffffffffffffffffffffffffffff16905090565b60606004805461124590612b77565b80601f016020809104026020016040519081016040528092919081815260200182805461127190612b77565b80156112be5780601f10611293576101008083540402835291602001916112be565b820191906000526020600020905b8154815290600101906020018083116112a157829003601f168201915b5050505050905090565b600a60009054906101000a900473ffffffffffffffffffffffffffffffffffffffff1681565b80600860006112fb61174b565b73ffffffffffffffffffffffffffffffffffffffff1673ffffffffffffffffffffffffffffffffffffffff16815260200190815260200160002060008473ffffffffffffffffffffffffffffffffffffffff1673ffffffffffffffffffffffffffffffffffffffff16815260200190815260200160002060006101000a81548160ff0219169083151502179055508173ffffffffffffffffffffffffffffffffffffffff166113a861174b565b73ffffffffffffffffffffffffffffffffffffffff167f17307eab39ab6107e8899845ad3d59bd9653f200f220920489ca2b5937696c31836040516113ed91906127f1565b60405180910390a35050565b611404848484610979565b60008373ffffffffffffffffffffffffffffffffffffffff163b146114665761142f84848484611aaa565b611465576040517fd1a57ed600000000000000000000000000000000000000000000000000000000815260040160405180910390fd5b5b50505050565b600b5481565b600e805461147f90612b77565b80601f01602080910402602001604051908101604052809291908181526020018280546114ab90612b77565b80156114f85780601f106114cd576101008083540402835291602001916114f8565b820191906000526020600020905b8154815290600101906020018083116114db57829003601f168201915b505050505081565b606061150b826116ec565b611541576040517fa14c4b5000000000000000000000000000000000000000000000000000000000815260040160405180910390fd5b600061154b611c0a565b905060008151141561156c5760405180602001604052806000815250611597565b8061157684611c21565b604051602001611587929190612706565b6040516020818303038152906040525b915050919050565b60006115a9611c7a565b6115b1611c84565b6115bb9190612a57565b905090565b600c5481565b6000600860008473ffffffffffffffffffffffffffffffffffffffff1673ffffffffffffffffffffffffffffffffffffffff16815260200190815260200160002060008373ffffffffffffffffffffffffffffffffffffffff1673ffffffffffffffffffffffffffffffffffffffff16815260200190815260200160002060009054906101000a900460ff16905092915050565b611662611968565b600073ffffffffffffffffffffffffffffffffffffffff168173ffffffffffffffffffffffffffffffffffffffff1614156116d2576040517f08c379a00000000000000000000000000000000000000000000000000000000081526004016116c990612849565b60405180910390fd5b6116db816119e6565b50565b6116e9816000611c97565b50565b6000816116f7611753565b11158015611706575060015482105b8015611744575060007c0100000000000000000000000000000000000000000000000000000000600560008581526020019081526020016000205416145b9050919050565b600033905090565b600090565b60008082905080611767611753565b116117ef576001548110156117ee5760006005600083815260200190815260200160002054905060007c0100000000000000000000000000000000000000000000000000000000821614156117ec575b60008114156117e25760056000836001900393508381526020019081526020016000205490506117b7565b8092505050611821565b505b5b6040517fdf2d9b4200000000000000000000000000000000000000000000000000000000815260040160405180910390fd5b919050565b60008060006007600085815260200190815260200160002090508092508254915050915091565b600073ffffffffffffffffffffffffffffffffffffffff8316925073ffffffffffffffffffffffffffffffffffffffff821691508382148383141790509392505050565b50505050565b60008060e883901c905060e86118ae868684611eeb565b62ffffff16901b9150509392505050565b600073ffffffffffffffffffffffffffffffffffffffff83169250814260a01b178317905092915050565b50505050565b60026009541415611936576040517f08c379a000000000000000000000000000000000000000000000000000000000815260040161192d90612929565b60405180910390fd5b6002600981905550565b61195a828260405180602001604052806000815250611ef4565b5050565b6001600981905550565b611970611f92565b73ffffffffffffffffffffffffffffffffffffffff1661198e61120d565b73ffffffffffffffffffffffffffffffffffffffff16146119e4576040517f08c379a00000000000000000000000000000000000000000000000000000000081526004016119db906128a9565b60405180910390fd5b565b60008060009054906101000a900473ffffffffffffffffffffffffffffffffffffffff169050816000806101000a81548173ffffffffffffffffffffffffffffffffffffffff021916908373ffffffffffffffffffffffffffffffffffffffff1602179055508173ffffffffffffffffffffffffffffffffffffffff168173ffffffffffffffffffffffffffffffffffffffff167f8be0079c531659141344cd1fd0a4f28419497f9722a3daafe3b4186f6b6457e060405160405180910390a35050565b60008373ffffffffffffffffffffffffffffffffffffffff1663150b7a02611ad061174b565b8786866040518563ffffffff1660e01b8152600401611af294939291906127a5565b602060405180830381600087803b158015611b0c57600080fd5b505af1925050508015611b3d57506040513d601f19601f82011682018060405250810190611b3a9190612488565b60015b611bb7573d8060008114611b6d576040519150601f19603f3d011682016040523d82523d6000602084013e611b72565b606091505b50600081511415611baf576040517fd1a57ed600000000000000000000000000000000000000000000000000000000815260040160405180910390fd5b805181602001fd5b63150b7a0260e01b7bffffffffffffffffffffffffffffffffffffffffffffffffffffffff1916817bffffffffffffffffffffffffffffffffffffffffffffffffffffffff191614915050949350505050565b606060405180602001604052806000815250905090565b606060a060405101806040526020810391506000825281835b600115611c6557600184039350600a81066030018453600a8104905080611c6057611c65565b611c3a565b50828103602084039350808452505050919050565b6000600254905090565b6000611c8e611753565b60015403905090565b6000611ca283611758565b90506000819050600080611cb586611826565b915091508415611d1e57611cd18184611ccc61174b565b61184d565b611d1d57611ce683611ce161174b565b6115c6565b611d1c576040517f59c896be00000000000000000000000000000000000000000000000000000000815260040160405180910390fd5b5b5b611d2c836000886001611891565b8015611d3757600082555b600160806001901b03600660008573ffffffffffffffffffffffffffffffffffffffff1673ffffffffffffffffffffffffffffffffffffffff16815260200190815260200160002060008282540192505081905550611ddf83611d9c85600088611897565b7c02000000000000000000000000000000000000000000000000000000007c010000000000000000000000000000000000000000000000000000000017176118bf565b600560008881526020019081526020016000208190555060007c020000000000000000000000000000000000000000000000000000000085161415611e67576000600187019050600060056000838152602001908152602001600020541415611e65576001548114611e64578460056000838152602001908152602001600020819055505b5b505b85600073ffffffffffffffffffffffffffffffffffffffff168473ffffffffffffffffffffffffffffffffffffffff167fddf252ad1be2c89b69c2b068fc378daa952ba7f163c4a11628f55a4df523b3ef60405160405180910390a4611ed18360008860016118ea565b600260008154809291906001019190505550505050505050565b60009392505050565b611efe8383611f9a565b60008373ffffffffffffffffffffffffffffffffffffffff163b14611f8d5760006001549050600083820390505b611f3f6000868380600101945086611aaa565b611f75576040517fd1a57ed600000000000000000000000000000000000000000000000000000000815260040160405180910390fd5b818110611f2c578160015414611f8a57600080fd5b50505b505050565b600033905090565b600060015490506000821415611fdc576040517fb562e8dd00000000000000000000000000000000000000000000000000000000815260040160405180910390fd5b611fe96000848385611891565b600160406001901b178202600660008573ffffffffffffffffffffffffffffffffffffffff1673ffffffffffffffffffffffffffffffffffffffff16815260200190815260200160002060008282540192505081905550612060836120516000866000611897565b61205a85612158565b176118bf565b6005600083815260200190815260200160002081905550600080838301905073ffffffffffffffffffffffffffffffffffffffff85169150828260007fddf252ad1be2c89b69c2b068fc378daa952ba7f163c4a11628f55a4df523b3ef600080a4600183015b81811461210157808360007fddf252ad1be2c89b69c2b068fc378daa952ba7f163c4a11628f55a4df523b3ef600080a46001810190506120c6565b50600082141561213d576040517f2e07630000000000000000000000000000000000000000000000000000000000815260040160405180910390fd5b80600181905550505061215360008483856118ea565b505050565b60006001821460e11b9050919050565b600061217b61217684612989565b612964565b90508281526020810184848401111561219757612196612c6c565b5b6121a2848285612b35565b509392505050565b6000813590506121b981612dfa565b92915050565b6000813590506121ce81612e11565b92915050565b6000815190506121e381612e11565b92915050565b6000813590506121f881612e28565b92915050565b60008151905061220d81612e28565b92915050565b600082601f83011261222857612227612c67565b5b8135612238848260208601612168565b91505092915050565b60008135905061225081612e3f565b92915050565b60008151905061226581612e3f565b92915050565b60006020828403121561228157612280612c76565b5b600061228f848285016121aa565b91505092915050565b600080604083850312156122af576122ae612c76565b5b60006122bd858286016121aa565b92505060206122ce858286016121aa565b9150509250929050565b6000806000606084860312156122f1576122f0612c76565b5b60006122ff868287016121aa565b9350506020612310868287016121aa565b925050604061232186828701612241565b9150509250925092565b6000806000806080858703121561234557612344612c76565b5b6000612353878288016121aa565b9450506020612364878288016121aa565b935050604061237587828801612241565b925050606085013567ffffffffffffffff81111561239657612395612c71565b5b6123a287828801612213565b91505092959194509250565b600080604083850312156123c5576123c4612c76565b5b60006123d3858286016121aa565b92505060206123e4858286016121bf565b9150509250929050565b6000806040838503121561240557612404612c76565b5b6000612413858286016121aa565b925050602061242485828601612241565b9150509250929050565b60006020828403121561244457612443612c76565b5b6000612452848285016121d4565b91505092915050565b60006020828403121561247157612470612c76565b5b600061247f848285016121e9565b91505092915050565b60006020828403121561249e5761249d612c76565b5b60006124ac848285016121fe565b91505092915050565b6000602082840312156124cb576124ca612c76565b5b60006124d984828501612241565b91505092915050565b6000602082840312156124f8576124f7612c76565b5b600061250684828501612256565b91505092915050565b61251881612a8b565b82525050565b61252781612a9d565b82525050565b6000612538826129ba565b61254281856129d0565b9350612552818560208601612b44565b61255b81612c7b565b840191505092915050565b61256f81612aff565b82525050565b6000612580826129c5565b61258a81856129e1565b935061259a818560208601612b44565b6125a381612c7b565b840191505092915050565b60006125b9826129c5565b6125c381856129f2565b93506125d3818560208601612b44565b80840191505092915050565b60006125ec6026836129e1565b91506125f782612c8c565b604082019050919050565b600061260f6010836129e1565b915061261a82612cdb565b602082019050919050565b6000612632601e836129e1565b915061263d82612d04565b602082019050919050565b60006126556020836129e1565b915061266082612d2d565b602082019050919050565b60006126786018836129e1565b915061268382612d56565b602082019050919050565b600061269b6016836129e1565b91506126a682612d7f565b602082019050919050565b60006126be6019836129e1565b91506126c982612da8565b602082019050919050565b60006126e1601f836129e1565b91506126ec82612dd1565b602082019050919050565b61270081612af5565b82525050565b600061271282856125ae565b915061271e82846125ae565b91508190509392505050565b600060208201905061273f600083018461250f565b92915050565b600060408201905061275a600083018561250f565b612767602083018461250f565b9392505050565b6000606082019050612783600083018661250f565b612790602083018561250f565b61279d60408301846126f7565b949350505050565b60006080820190506127ba600083018761250f565b6127c7602083018661250f565b6127d460408301856126f7565b81810360608301526127e6818461252d565b905095945050505050565b6000602082019050612806600083018461251e565b92915050565b60006020820190506128216000830184612566565b92915050565b600060208201905081810360008301526128418184612575565b905092915050565b60006020820190508181036000830152612862816125df565b9050919050565b6000602082019050818103600083015261288281612602565b9050919050565b600060208201905081810360008301526128a281612625565b9050919050565b600060208201905081810360008301526128c281612648565b9050919050565b600060208201905081810360008301526128e28161266b565b9050919050565b600060208201905081810360008301526129028161268e565b9050919050565b60006020820190508181036000830152612922816126b1565b9050919050565b60006020820190508181036000830152612942816126d4565b9050919050565b600060208201905061295e60008301846126f7565b92915050565b600061296e61297f565b905061297a8282612ba9565b919050565b6000604051905090565b600067ffffffffffffffff8211156129a4576129a3612c38565b5b6129ad82612c7b565b9050602081019050919050565b600081519050919050565b600081519050919050565b600082825260208201905092915050565b600082825260208201905092915050565b600081905092915050565b6000612a0882612af5565b9150612a1383612af5565b9250817fffffffffffffffffffffffffffffffffffffffffffffffffffffffffffffffff0483118215151615612a4c57612a4b612bda565b5b828202905092915050565b6000612a6282612af5565b9150612a6d83612af5565b925082821015612a8057612a7f612bda565b5b828203905092915050565b6000612a9682612ad5565b9050919050565b60008115159050919050565b60007fffffffff0000000000000000000000000000000000000000000000000000000082169050919050565b600073ffffffffffffffffffffffffffffffffffffffff82169050919050565b6000819050919050565b6000612b0a82612b11565b9050919050565b6000612b1c82612b23565b9050919050565b6000612b2e82612ad5565b9050919050565b82818337600083830152505050565b60005b83811015612b62578082015181840152602081019050612b47565b83811115612b71576000848401525b50505050565b60006002820490506001821680612b8f57607f821691505b60208210811415612ba357612ba2612c09565b5b50919050565b612bb282612c7b565b810181811067ffffffffffffffff82111715612bd157612bd0612c38565b5b80604052505050565b7f4e487b7100000000000000000000000000000000000000000000000000000000600052601160045260246000fd5b7f4e487b7100000000000000000000000000000000000000000000000000000000600052602260045260246000fd5b7f4e487b7100000000000000000000000000000000000000000000000000000000600052604160045260246000fd5b600080fd5b600080fd5b600080fd5b600080fd5b6000601f19601f8301169050919050565b7f4f776e61626c653a206e6577206f776e657220697320746865207a65726f206160008201527f6464726573730000000000000000000000000000000000000000000000000000602082015250565b7f4e6f7420656e6f7567682066756e647300000000000000000000000000000000600082015250565b7f5468652063616c6c657220697320616e6f7468657220636f6e74726163740000600082015250565b7f4f776e61626c653a2063616c6c6572206973206e6f7420746865206f776e6572600082015250565b7f446f63546f6b656e207472616e73666572206661696c65640000000000000000600082015250565b7f417070726f766520446f63546f6b656e20666972737400000000000000000000600082015250565b7f5175616e74697479206d75737420626520706f73697469766500000000000000600082015250565b7f5265656e7472616e637947756172643a207265656e7472616e742063616c6c00600082015250565b612e0381612a8b565b8114612e0e57600080fd5b50565b612e1a81612a9d565b8114612e2557600080fd5b50565b612e3181612aa9565b8114612e3c57600080fd5b50565b612e4881612af5565b8114612e5357600080fd5b5056fea264697066735822122078f64f199f2d6f454ff20ccb5557ac32b25d6edfebedd7003a17a4bcce27d88d64736f6c63430008070033",
  "linkReferences": {},
  "deployedLinkReferences": {}
}