{
  "_format": "hh-sol-artifact-1",
  "contractName": "LottoTicketsERC20",
  "sourceName": "contracts/LotoTicketErc20.sol",
  "abi": [
    {
      "inputs": [
        {
          "internalType": "address payable",
          "name": "_docTokenAddress",
          "type": "address"
        }
      ],
      "stateMutability": "nonpayable",
      "type": "constructor"
    },
    {
      "anonymous": false,
      "inputs": [
        {
          "indexed": true,
          "internalType": "address",
          "name": "owner",
          "type": "address"
        },
        {
          "indexed": true,
          "internalType": "address",
          "name": "spender",
          "type": "address"
        },
        {
          "indexed": false,
          "internalType": "uint256",
          "name": "value",
          "type": "uint256"
        }
      ],
      "name": "Approval",
      "type": "event"
    },
    {
      "anonymous": false,
      "inputs": [
        {
          "indexed": true,
          "internalType": "address",
          "name": "from",
          "type": "address"
        },
        {
          "indexed": true,
          "internalType": "address",
          "name": "to",
          "type": "address"
        },
        {
          "indexed": false,
          "internalType": "uint256",
          "name": "value",
          "type": "uint256"
        }
      ],
      "name": "Transfer",
      "type": "event"
    },
    {
      "inputs": [
        {
          "internalType": "address",
          "name": "owner",
          "type": "address"
        },
        {
          "internalType": "address",
          "name": "spender",
          "type": "address"
        }
      ],
      "name": "allowance",
      "outputs": [
        {
          "internalType": "uint256",
          "name": "",
          "type": "uint256"
        }
      ],
      "stateMutability": "view",
      "type": "function"
    },
    {
      "inputs": [
        {
          "internalType": "address",
          "name": "spender",
          "type": "address"
        },
        {
          "internalType": "uint256",
          "name": "amount",
          "type": "uint256"
        }
      ],
      "name": "approve",
      "outputs": [
        {
          "internalType": "bool",
          "name": "",
          "type": "bool"
        }
      ],
      "stateMutability": "nonpayable",
      "type": "function"
    },
    {
      "inputs": [
        {
          "internalType": "address",
          "name": "account",
          "type": "address"
        }
      ],
      "name": "balanceOf",
      "outputs": [
        {
          "internalType": "uint256",
          "name": "",
          "type": "uint256"
        }
      ],
      "stateMutability": "view",
      "type": "function"
    },
    {
      "inputs": [],
      "name": "decimals",
      "outputs": [
        {
          "internalType": "uint8",
          "name": "",
          "type": "uint8"
        }
      ],
      "stateMutability": "view",
      "type": "function"
    },
    {
      "inputs": [
        {
          "internalType": "address",
          "name": "spender",
          "type": "address"
        },
        {
          "internalType": "uint256",
          "name": "subtractedValue",
          "type": "uint256"
        }
      ],
      "name": "decreaseAllowance",
      "outputs": [
        {
          "internalType": "bool",
          "name": "",
          "type": "bool"
        }
      ],
      "stateMutability": "nonpayable",
      "type": "function"
    },
    {
      "inputs": [],
      "name": "docToken",
      "outputs": [
        {
          "internalType": "contract IERC20",
          "name": "",
          "type": "address"
        }
      ],
      "stateMutability": "view",
      "type": "function"
    },
    {
      "inputs": [],
      "name": "getCapital",
      "outputs": [
        {
          "internalType": "uint256",
          "name": "",
          "type": "uint256"
        }
      ],
      "stateMutability": "view",
      "type": "function"
    },
    {
      "inputs": [
        {
          "internalType": "address",
          "name": "spender",
          "type": "address"
        },
        {
          "internalType": "uint256",
          "name": "addedValue",
          "type": "uint256"
        }
      ],
      "name": "increaseAllowance",
      "outputs": [
        {
          "internalType": "bool",
          "name": "",
          "type": "bool"
        }
      ],
      "stateMutability": "nonpayable",
      "type": "function"
    },
    {
      "inputs": [],
      "name": "mintCost",
      "outputs": [
        {
          "internalType": "uint256",
          "name": "",
          "type": "uint256"
        }
      ],
      "stateMutability": "view",
      "type": "function"
    },
    {
      "inputs": [
        {
          "internalType": "uint256",
          "name": "quantity",
          "type": "uint256"
        }
      ],
      "name": "mintWithDOC",
      "outputs": [],
      "stateMutability": "nonpayable",
      "type": "function"
    },
    {
      "inputs": [],
      "name": "name",
      "outputs": [
        {
          "internalType": "string",
          "name": "",
          "type": "string"
        }
      ],
      "stateMutability": "view",
      "type": "function"
    },
    {
      "inputs": [],
      "name": "symbol",
      "outputs": [
        {
          "internalType": "string",
          "name": "",
          "type": "string"
        }
      ],
      "stateMutability": "view",
      "type": "function"
    },
    {
      "inputs": [],
      "name": "totalSupply",
      "outputs": [
        {
          "internalType": "uint256",
          "name": "",
          "type": "uint256"
        }
      ],
      "stateMutability": "view",
      "type": "function"
    },
    {
      "inputs": [
        {
          "internalType": "address",
          "name": "to",
          "type": "address"
        },
        {
          "internalType": "uint256",
          "name": "amount",
          "type": "uint256"
        }
      ],
      "name": "transfer",
      "outputs": [
        {
          "internalType": "bool",
          "name": "",
          "type": "bool"
        }
      ],
      "stateMutability": "nonpayable",
      "type": "function"
    },
    {
      "inputs": [
        {
          "internalType": "address",
          "name": "from",
          "type": "address"
        },
        {
          "internalType": "address",
          "name": "to",
          "type": "address"
        },
        {
          "internalType": "uint256",
          "name": "amount",
          "type": "uint256"
        }
      ],
      "name": "transferFrom",
      "outputs": [
        {
          "internalType": "bool",
          "name": "",
          "type": "bool"
        }
      ],
      "stateMutability": "nonpayable",
      "type": "function"
    }
  ],
  "bytecode": "0x608060405260016008553480156200001657600080fd5b5060405162001fa338038062001fa383398181016040528101906200003c9190620001f3565b6040518060400160405280600c81526020017f4c6f74746f5469636b65747300000000000000000000000000000000000000008152506040518060400160405280600381526020017f4c545400000000000000000000000000000000000000000000000000000000008152508160039080519060200190620000c09291906200012c565b508060049080519060200190620000d99291906200012c565b505050600160058190555080600960006101000a81548173ffffffffffffffffffffffffffffffffffffffff021916908373ffffffffffffffffffffffffffffffffffffffff16021790555050620002dd565b8280546200013a9062000259565b90600052602060002090601f0160209004810192826200015e5760008555620001aa565b82601f106200017957805160ff1916838001178555620001aa565b82800160010185558215620001aa579182015b82811115620001a95782518255916020019190600101906200018c565b5b509050620001b99190620001bd565b5090565b5b80821115620001d8576000816000905550600101620001be565b5090565b600081519050620001ed81620002c3565b92915050565b6000602082840312156200020c576200020b620002be565b5b60006200021c84828501620001dc565b91505092915050565b6000620002328262000239565b9050919050565b600073ffffffffffffffffffffffffffffffffffffffff82169050919050565b600060028204905060018216806200027257607f821691505b602082108114156200028957620002886200028f565b5b50919050565b7f4e487b7100000000000000000000000000000000000000000000000000000000600052602260045260246000fd5b600080fd5b620002ce8162000225565b8114620002da57600080fd5b50565b611cb680620002ed6000396000f3fe608060405234801561001057600080fd5b50600436106100f55760003560e01c806395d89b4111610097578063bdb4b84811610066578063bdb4b848146102b0578063d961350b146102ce578063dd62ed3e146102ea578063e00323831461031a576100f5565b806395d89b411461021457806399c6fe7314610232578063a457c2d714610250578063a9059cbb14610280576100f5565b806323b872dd116100d357806323b872dd14610166578063313ce5671461019657806339509351146101b457806370a08231146101e4576100f5565b806306fdde03146100fa578063095ea7b31461011857806318160ddd14610148575b600080fd5b610102610338565b60405161010f91906114e6565b60405180910390f35b610132600480360381019061012d919061113e565b6103ca565b60405161013f91906114b0565b60405180910390f35b6101506103ed565b60405161015d91906116a8565b60405180910390f35b610180600480360381019061017b91906110eb565b6103f7565b60405161018d91906114b0565b60405180910390f35b61019e610426565b6040516101ab91906116c3565b60405180910390f35b6101ce60048036038101906101c9919061113e565b61042b565b6040516101db91906114b0565b60405180910390f35b6101fe60048036038101906101f9919061107e565b610462565b60405161020b91906116a8565b60405180910390f35b61021c6104aa565b60405161022991906114e6565b60405180910390f35b61023a61053c565b60405161024791906114cb565b60405180910390f35b61026a6004803603810190610265919061113e565b610562565b60405161027791906114b0565b60405180910390f35b61029a6004803603810190610295919061113e565b6105d9565b6040516102a791906114b0565b60405180910390f35b6102b86105fc565b6040516102c591906116a8565b60405180910390f35b6102e860048036038101906102e391906111ab565b610602565b005b61030460048036038101906102ff91906110ab565b6108fa565b60405161031191906116a8565b60405180910390f35b610322610981565b60405161032f91906116a8565b60405180910390f35b6060600380546103479061189c565b80601f01602080910402602001604051908101604052809291908181526020018280546103739061189c565b80156103c05780601f10610395576101008083540402835291602001916103c0565b820191906000526020600020905b8154815290600101906020018083116103a357829003601f168201915b5050505050905090565b6000806103d5610998565b90506103e28185856109a0565b600191505092915050565b6000600254905090565b600080610402610998565b905061040f858285610b6b565b61041a858585610bf7565b60019150509392505050565b600090565b600080610436610998565b905061045781858561044885896108fa565b61045291906116fa565b6109a0565b600191505092915050565b60008060008373ffffffffffffffffffffffffffffffffffffffff1673ffffffffffffffffffffffffffffffffffffffff168152602001908152602001600020549050919050565b6060600480546104b99061189c565b80601f01602080910402602001604051908101604052809291908181526020018280546104e59061189c565b80156105325780601f1061050757610100808354040283529160200191610532565b820191906000526020600020905b81548152906001019060200180831161051557829003601f168201915b5050505050905090565b600960009054906101000a900473ffffffffffffffffffffffffffffffffffffffff1681565b60008061056d610998565b9050600061057b82866108fa565b9050838110156105c0576040517f08c379a00000000000000000000000000000000000000000000000000000000081526004016105b790611668565b60405180910390fd5b6105cd82868684036109a0565b60019250505092915050565b6000806105e4610998565b90506105f1818585610bf7565b600191505092915050565b60085481565b61060a610e6f565b3373ffffffffffffffffffffffffffffffffffffffff163273ffffffffffffffffffffffffffffffffffffffff1614610678576040517f08c379a000000000000000000000000000000000000000000000000000000000815260040161066f90611588565b60405180910390fd5b600081116106bb576040517f08c379a00000000000000000000000000000000000000000000000000000000081526004016106b290611608565b60405180910390fd5b6000816008546106cb9190611750565b90506000670de0b6b3a7640000826106e39190611750565b905080600960009054906101000a900473ffffffffffffffffffffffffffffffffffffffff1673ffffffffffffffffffffffffffffffffffffffff1663dd62ed3e33306040518363ffffffff1660e01b8152600401610743929190611450565b60206040518083038186803b15801561075b57600080fd5b505afa15801561076f573d6000803e3d6000fd5b505050506040513d601f19601f8201168201806040525081019061079391906111d8565b10156107d4576040517f08c379a00000000000000000000000000000000000000000000000000000000081526004016107cb906115c8565b60405180910390fd5b6000600960009054906101000a900473ffffffffffffffffffffffffffffffffffffffff1673ffffffffffffffffffffffffffffffffffffffff166323b872dd3330856040518463ffffffff1660e01b815260040161083593929190611479565b602060405180830381600087803b15801561084f57600080fd5b505af1158015610863573d6000803e3d6000fd5b505050506040513d601f19601f82011682018060405250810190610887919061117e565b9050806108c9576040517f08c379a00000000000000000000000000000000000000000000000000000000081526004016108c0906115a8565b60405180910390fd5b6108d33385610ebf565b83600660008282546108e591906116fa565b925050819055505050506108f7611016565b50565b6000600160008473ffffffffffffffffffffffffffffffffffffffff1673ffffffffffffffffffffffffffffffffffffffff16815260200190815260200160002060008373ffffffffffffffffffffffffffffffffffffffff1673ffffffffffffffffffffffffffffffffffffffff16815260200190815260200160002054905092915050565b600060075460065461099391906117aa565b905090565b600033905090565b600073ffffffffffffffffffffffffffffffffffffffff168373ffffffffffffffffffffffffffffffffffffffff161415610a10576040517f08c379a0000000000000000000000000000000000000000000000000000000008152600401610a0790611628565b60405180910390fd5b600073ffffffffffffffffffffffffffffffffffffffff168273ffffffffffffffffffffffffffffffffffffffff161415610a80576040517f08c379a0000000000000000000000000000000000000000000000000000000008152600401610a7790611528565b60405180910390fd5b80600160008573ffffffffffffffffffffffffffffffffffffffff1673ffffffffffffffffffffffffffffffffffffffff16815260200190815260200160002060008473ffffffffffffffffffffffffffffffffffffffff1673ffffffffffffffffffffffffffffffffffffffff168152602001908152602001600020819055508173ffffffffffffffffffffffffffffffffffffffff168373ffffffffffffffffffffffffffffffffffffffff167f8c5be1e5ebec7d5bd14f71427d1e84f3dd0314c0f7b2291e5b200ac8c7c3b92583604051610b5e91906116a8565b60405180910390a3505050565b6000610b7784846108fa565b90507fffffffffffffffffffffffffffffffffffffffffffffffffffffffffffffffff8114610bf15781811015610be3576040517f08c379a0000000000000000000000000000000000000000000000000000000008152600401610bda90611548565b60405180910390fd5b610bf084848484036109a0565b5b50505050565b600073ffffffffffffffffffffffffffffffffffffffff168373ffffffffffffffffffffffffffffffffffffffff161415610c67576040517f08c379a0000000000000000000000000000000000000000000000000000000008152600401610c5e906115e8565b60405180910390fd5b600073ffffffffffffffffffffffffffffffffffffffff168273ffffffffffffffffffffffffffffffffffffffff161415610cd7576040517f08c379a0000000000000000000000000000000000000000000000000000000008152600401610cce90611508565b60405180910390fd5b610ce2838383611020565b60008060008573ffffffffffffffffffffffffffffffffffffffff1673ffffffffffffffffffffffffffffffffffffffff16815260200190815260200160002054905081811015610d68576040517f08c379a0000000000000000000000000000000000000000000000000000000008152600401610d5f90611568565b60405180910390fd5b8181036000808673ffffffffffffffffffffffffffffffffffffffff1673ffffffffffffffffffffffffffffffffffffffff16815260200190815260200160002081905550816000808573ffffffffffffffffffffffffffffffffffffffff1673ffffffffffffffffffffffffffffffffffffffff168152602001908152602001600020600082825401925050819055508273ffffffffffffffffffffffffffffffffffffffff168473ffffffffffffffffffffffffffffffffffffffff167fddf252ad1be2c89b69c2b068fc378daa952ba7f163c4a11628f55a4df523b3ef84604051610e5691906116a8565b60405180910390a3610e69848484611025565b50505050565b60026005541415610eb5576040517f08c379a0000000000000000000000000000000000000000000000000000000008152600401610eac90611648565b60405180910390fd5b6002600581905550565b600073ffffffffffffffffffffffffffffffffffffffff168273ffffffffffffffffffffffffffffffffffffffff161415610f2f576040517f08c379a0000000000000000000000000000000000000000000000000000000008152600401610f2690611688565b60405180910390fd5b610f3b60008383611020565b8060026000828254610f4d91906116fa565b92505081905550806000808473ffffffffffffffffffffffffffffffffffffffff1673ffffffffffffffffffffffffffffffffffffffff168152602001908152602001600020600082825401925050819055508173ffffffffffffffffffffffffffffffffffffffff16600073ffffffffffffffffffffffffffffffffffffffff167fddf252ad1be2c89b69c2b068fc378daa952ba7f163c4a11628f55a4df523b3ef83604051610ffe91906116a8565b60405180910390a361101260008383611025565b5050565b6001600581905550565b505050565b505050565b60008135905061103981611c3b565b92915050565b60008151905061104e81611c52565b92915050565b60008135905061106381611c69565b92915050565b60008151905061107881611c69565b92915050565b6000602082840312156110945761109361192c565b5b60006110a28482850161102a565b91505092915050565b600080604083850312156110c2576110c161192c565b5b60006110d08582860161102a565b92505060206110e18582860161102a565b9150509250929050565b6000806000606084860312156111045761110361192c565b5b60006111128682870161102a565b93505060206111238682870161102a565b925050604061113486828701611054565b9150509250925092565b600080604083850312156111555761115461192c565b5b60006111638582860161102a565b925050602061117485828601611054565b9150509250929050565b6000602082840312156111945761119361192c565b5b60006111a28482850161103f565b91505092915050565b6000602082840312156111c1576111c061192c565b5b60006111cf84828501611054565b91505092915050565b6000602082840312156111ee576111ed61192c565b5b60006111fc84828501611069565b91505092915050565b61120e816117de565b82525050565b61121d816117f0565b82525050565b61122c81611833565b82525050565b600061123d826116de565b61124781856116e9565b9350611257818560208601611869565b61126081611931565b840191505092915050565b60006112786023836116e9565b915061128382611942565b604082019050919050565b600061129b6022836116e9565b91506112a682611991565b604082019050919050565b60006112be601d836116e9565b91506112c9826119e0565b602082019050919050565b60006112e16026836116e9565b91506112ec82611a09565b604082019050919050565b6000611304601e836116e9565b915061130f82611a58565b602082019050919050565b60006113276018836116e9565b915061133282611a81565b602082019050919050565b600061134a6016836116e9565b915061135582611aaa565b602082019050919050565b600061136d6025836116e9565b915061137882611ad3565b604082019050919050565b60006113906019836116e9565b915061139b82611b22565b602082019050919050565b60006113b36024836116e9565b91506113be82611b4b565b604082019050919050565b60006113d6601f836116e9565b91506113e182611b9a565b602082019050919050565b60006113f96025836116e9565b915061140482611bc3565b604082019050919050565b600061141c601f836116e9565b915061142782611c12565b602082019050919050565b61143b8161181c565b82525050565b61144a81611826565b82525050565b60006040820190506114656000830185611205565b6114726020830184611205565b9392505050565b600060608201905061148e6000830186611205565b61149b6020830185611205565b6114a86040830184611432565b949350505050565b60006020820190506114c56000830184611214565b92915050565b60006020820190506114e06000830184611223565b92915050565b600060208201905081810360008301526115008184611232565b905092915050565b600060208201905081810360008301526115218161126b565b9050919050565b600060208201905081810360008301526115418161128e565b9050919050565b60006020820190508181036000830152611561816112b1565b9050919050565b60006020820190508181036000830152611581816112d4565b9050919050565b600060208201905081810360008301526115a1816112f7565b9050919050565b600060208201905081810360008301526115c18161131a565b9050919050565b600060208201905081810360008301526115e18161133d565b9050919050565b6000602082019050818103600083015261160181611360565b9050919050565b6000602082019050818103600083015261162181611383565b9050919050565b60006020820190508181036000830152611641816113a6565b9050919050565b60006020820190508181036000830152611661816113c9565b9050919050565b60006020820190508181036000830152611681816113ec565b9050919050565b600060208201905081810360008301526116a18161140f565b9050919050565b60006020820190506116bd6000830184611432565b92915050565b60006020820190506116d86000830184611441565b92915050565b600081519050919050565b600082825260208201905092915050565b60006117058261181c565b91506117108361181c565b9250827fffffffffffffffffffffffffffffffffffffffffffffffffffffffffffffffff03821115611745576117446118ce565b5b828201905092915050565b600061175b8261181c565b91506117668361181c565b9250817fffffffffffffffffffffffffffffffffffffffffffffffffffffffffffffffff048311821515161561179f5761179e6118ce565b5b828202905092915050565b60006117b58261181c565b91506117c08361181c565b9250828210156117d3576117d26118ce565b5b828203905092915050565b60006117e9826117fc565b9050919050565b60008115159050919050565b600073ffffffffffffffffffffffffffffffffffffffff82169050919050565b6000819050919050565b600060ff82169050919050565b600061183e82611845565b9050919050565b600061185082611857565b9050919050565b6000611862826117fc565b9050919050565b60005b8381101561188757808201518184015260208101905061186c565b83811115611896576000848401525b50505050565b600060028204905060018216806118b457607f821691505b602082108114156118c8576118c76118fd565b5b50919050565b7f4e487b7100000000000000000000000000000000000000000000000000000000600052601160045260246000fd5b7f4e487b7100000000000000000000000000000000000000000000000000000000600052602260045260246000fd5b600080fd5b6000601f19601f8301169050919050565b7f45524332303a207472616e7366657220746f20746865207a65726f206164647260008201527f6573730000000000000000000000000000000000000000000000000000000000602082015250565b7f45524332303a20617070726f766520746f20746865207a65726f20616464726560008201527f7373000000000000000000000000000000000000000000000000000000000000602082015250565b7f45524332303a20696e73756666696369656e7420616c6c6f77616e6365000000600082015250565b7f45524332303a207472616e7366657220616d6f756e742065786365656473206260008201527f616c616e63650000000000000000000000000000000000000000000000000000602082015250565b7f5468652063616c6c657220697320616e6f7468657220636f6e74726163740000600082015250565b7f446f63546f6b656e207472616e73666572206661696c65640000000000000000600082015250565b7f417070726f766520446f63546f6b656e20666972737400000000000000000000600082015250565b7f45524332303a207472616e736665722066726f6d20746865207a65726f20616460008201527f6472657373000000000000000000000000000000000000000000000000000000602082015250565b7f5175616e74697479206d75737420626520706f73697469766500000000000000600082015250565b7f45524332303a20617070726f76652066726f6d20746865207a65726f2061646460008201527f7265737300000000000000000000000000000000000000000000000000000000602082015250565b7f5265656e7472616e637947756172643a207265656e7472616e742063616c6c00600082015250565b7f45524332303a2064656372656173656420616c6c6f77616e63652062656c6f7760008201527f207a65726f000000000000000000000000000000000000000000000000000000602082015250565b7f45524332303a206d696e7420746f20746865207a65726f206164647265737300600082015250565b611c44816117de565b8114611c4f57600080fd5b50565b611c5b816117f0565b8114611c6657600080fd5b50565b611c728161181c565b8114611c7d57600080fd5b5056fea26469706673582212201995fd70d24c7e1003fe65bfe3451fe3e576b44602d6e25a15f34dbe162eefc964736f6c63430008070033",
  "linkReferences": {},
  "deployedLinkReferences": {}
}