{
  "_format": "hh-sol-artifact-1",
  "contractName": "LottoTicketsERC20",
  "sourceName": "contracts/LotoTicketErc20.sol",
  "abi": [
    {
      "inputs": [
        {
          "internalType": "address payable",
          "name": "_docTokenAddress",
          "type": "address"
        }
      ],
      "stateMutability": "nonpayable",
      "type": "constructor"
    },
    {
      "anonymous": false,
      "inputs": [
        {
          "indexed": true,
          "internalType": "address",
          "name": "owner",
          "type": "address"
        },
        {
          "indexed": true,
          "internalType": "address",
          "name": "spender",
          "type": "address"
        },
        {
          "indexed": false,
          "internalType": "uint256",
          "name": "value",
          "type": "uint256"
        }
      ],
      "name": "Approval",
      "type": "event"
    },
    {
      "anonymous": false,
      "inputs": [
        {
          "indexed": true,
          "internalType": "address",
          "name": "from",
          "type": "address"
        },
        {
          "indexed": true,
          "internalType": "address",
          "name": "to",
          "type": "address"
        },
        {
          "indexed": false,
          "internalType": "uint256",
          "name": "value",
          "type": "uint256"
        }
      ],
      "name": "Transfer",
      "type": "event"
    },
    {
      "inputs": [
        {
          "internalType": "address",
          "name": "owner",
          "type": "address"
        },
        {
          "internalType": "address",
          "name": "spender",
          "type": "address"
        }
      ],
      "name": "allowance",
      "outputs": [
        {
          "internalType": "uint256",
          "name": "",
          "type": "uint256"
        }
      ],
      "stateMutability": "view",
      "type": "function"
    },
    {
      "inputs": [
        {
          "internalType": "address",
          "name": "spender",
          "type": "address"
        },
        {
          "internalType": "uint256",
          "name": "amount",
          "type": "uint256"
        }
      ],
      "name": "approve",
      "outputs": [
        {
          "internalType": "bool",
          "name": "",
          "type": "bool"
        }
      ],
      "stateMutability": "nonpayable",
      "type": "function"
    },
    {
      "inputs": [
        {
          "internalType": "address",
          "name": "account",
          "type": "address"
        }
      ],
      "name": "balanceOf",
      "outputs": [
        {
          "internalType": "uint256",
          "name": "",
          "type": "uint256"
        }
      ],
      "stateMutability": "view",
      "type": "function"
    },
    {
      "inputs": [],
      "name": "decimals",
      "outputs": [
        {
          "internalType": "uint8",
          "name": "",
          "type": "uint8"
        }
      ],
      "stateMutability": "view",
      "type": "function"
    },
    {
      "inputs": [
        {
          "internalType": "address",
          "name": "spender",
          "type": "address"
        },
        {
          "internalType": "uint256",
          "name": "subtractedValue",
          "type": "uint256"
        }
      ],
      "name": "decreaseAllowance",
      "outputs": [
        {
          "internalType": "bool",
          "name": "",
          "type": "bool"
        }
      ],
      "stateMutability": "nonpayable",
      "type": "function"
    },
    {
      "inputs": [],
      "name": "docToken",
      "outputs": [
        {
          "internalType": "contract IERC20",
          "name": "",
          "type": "address"
        }
      ],
      "stateMutability": "view",
      "type": "function"
    },
    {
      "inputs": [],
      "name": "getCapital",
      "outputs": [
        {
          "internalType": "uint256",
          "name": "",
          "type": "uint256"
        }
      ],
      "stateMutability": "view",
      "type": "function"
    },
    {
      "inputs": [
        {
          "internalType": "address",
          "name": "spender",
          "type": "address"
        },
        {
          "internalType": "uint256",
          "name": "addedValue",
          "type": "uint256"
        }
      ],
      "name": "increaseAllowance",
      "outputs": [
        {
          "internalType": "bool",
          "name": "",
          "type": "bool"
        }
      ],
      "stateMutability": "nonpayable",
      "type": "function"
    },
    {
      "inputs": [
        {
          "internalType": "uint256",
          "name": "quantity",
          "type": "uint256"
        }
      ],
      "name": "mint",
      "outputs": [],
      "stateMutability": "nonpayable",
      "type": "function"
    },
    {
      "inputs": [],
      "name": "mintCost",
      "outputs": [
        {
          "internalType": "uint256",
          "name": "",
          "type": "uint256"
        }
      ],
      "stateMutability": "view",
      "type": "function"
    },
    {
      "inputs": [],
      "name": "name",
      "outputs": [
        {
          "internalType": "string",
          "name": "",
          "type": "string"
        }
      ],
      "stateMutability": "view",
      "type": "function"
    },
    {
      "inputs": [
        {
          "internalType": "uint256",
          "name": "quantity",
          "type": "uint256"
        }
      ],
      "name": "redeemTicket",
      "outputs": [],
      "stateMutability": "nonpayable",
      "type": "function"
    },
    {
      "inputs": [],
      "name": "symbol",
      "outputs": [
        {
          "internalType": "string",
          "name": "",
          "type": "string"
        }
      ],
      "stateMutability": "view",
      "type": "function"
    },
    {
      "inputs": [],
      "name": "totalSupply",
      "outputs": [
        {
          "internalType": "uint256",
          "name": "",
          "type": "uint256"
        }
      ],
      "stateMutability": "view",
      "type": "function"
    },
    {
      "inputs": [
        {
          "internalType": "address",
          "name": "to",
          "type": "address"
        },
        {
          "internalType": "uint256",
          "name": "amount",
          "type": "uint256"
        }
      ],
      "name": "transfer",
      "outputs": [
        {
          "internalType": "bool",
          "name": "",
          "type": "bool"
        }
      ],
      "stateMutability": "nonpayable",
      "type": "function"
    },
    {
      "inputs": [
        {
          "internalType": "address",
          "name": "from",
          "type": "address"
        },
        {
          "internalType": "address",
          "name": "to",
          "type": "address"
        },
        {
          "internalType": "uint256",
          "name": "amount",
          "type": "uint256"
        }
      ],
      "name": "transferFrom",
      "outputs": [
        {
          "internalType": "bool",
          "name": "",
          "type": "bool"
        }
      ],
      "stateMutability": "nonpayable",
      "type": "function"
    }
  ],
  "bytecode": "0x608060405260016008553480156200001657600080fd5b506040516200284a3803806200284a83398181016040528101906200003c9190620001f3565b6040518060400160405280600c81526020017f4c6f74746f5469636b65747300000000000000000000000000000000000000008152506040518060400160405280600381526020017f4c545400000000000000000000000000000000000000000000000000000000008152508160039080519060200190620000c09291906200012c565b508060049080519060200190620000d99291906200012c565b505050600160058190555080600960006101000a81548173ffffffffffffffffffffffffffffffffffffffff021916908373ffffffffffffffffffffffffffffffffffffffff16021790555050620002dd565b8280546200013a9062000259565b90600052602060002090601f0160209004810192826200015e5760008555620001aa565b82601f106200017957805160ff1916838001178555620001aa565b82800160010185558215620001aa579182015b82811115620001a95782518255916020019190600101906200018c565b5b509050620001b99190620001bd565b5090565b5b80821115620001d8576000816000905550600101620001be565b5090565b600081519050620001ed81620002c3565b92915050565b6000602082840312156200020c576200020b620002be565b5b60006200021c84828501620001dc565b91505092915050565b6000620002328262000239565b9050919050565b600073ffffffffffffffffffffffffffffffffffffffff82169050919050565b600060028204905060018216806200027257607f821691505b602082108114156200028957620002886200028f565b5b50919050565b7f4e487b7100000000000000000000000000000000000000000000000000000000600052602260045260246000fd5b600080fd5b620002ce8162000225565b8114620002da57600080fd5b50565b61255d80620002ed6000396000f3fe608060405234801561001057600080fd5b50600436106101005760003560e01c806395d89b4111610097578063a9059cbb11610066578063a9059cbb146102c3578063bdb4b848146102f3578063dd62ed3e14610311578063e00323831461034157610100565b806395d89b411461023b57806399c6fe7314610259578063a0712d6814610277578063a457c2d71461029357610100565b806323b872dd116100d357806323b872dd1461018d578063313ce567146101bd57806339509351146101db57806370a082311461020b57610100565b806306fdde0314610105578063095ea7b31461012357806315f59d7f1461015357806318160ddd1461016f575b600080fd5b61010d61035f565b60405161011a9190611bae565b60405180910390f35b61013d60048036038101906101389190611713565b6103f1565b60405161014a9190611b78565b60405180910390f35b61016d60048036038101906101689190611780565b610414565b005b6101776107cd565b6040516101849190611e10565b60405180910390f35b6101a760048036038101906101a291906116c0565b6107d7565b6040516101b49190611b78565b60405180910390f35b6101c5610806565b6040516101d29190611e2b565b60405180910390f35b6101f560048036038101906101f09190611713565b61080b565b6040516102029190611b78565b60405180910390f35b61022560048036038101906102209190611653565b610842565b6040516102329190611e10565b60405180910390f35b61024361088a565b6040516102509190611bae565b60405180910390f35b61026161091c565b60405161026e9190611b93565b60405180910390f35b610291600480360381019061028c9190611780565b610942565b005b6102ad60048036038101906102a89190611713565b610c3a565b6040516102ba9190611b78565b60405180910390f35b6102dd60048036038101906102d89190611713565b610cb1565b6040516102ea9190611b78565b60405180910390f35b6102fb610cd4565b6040516103089190611e10565b60405180910390f35b61032b60048036038101906103269190611680565b610cda565b6040516103389190611e10565b60405180910390f35b610349610d61565b6040516103569190611e10565b60405180910390f35b60606003805461036e90612004565b80601f016020809104026020016040519081016040528092919081815260200182805461039a90612004565b80156103e75780601f106103bc576101008083540402835291602001916103e7565b820191906000526020600020905b8154815290600101906020018083116103ca57829003601f168201915b5050505050905090565b6000806103fc610d78565b9050610409818585610d80565b600191505092915050565b61041c610f4b565b3373ffffffffffffffffffffffffffffffffffffffff163273ffffffffffffffffffffffffffffffffffffffff161461048a576040517f08c379a000000000000000000000000000000000000000000000000000000000815260040161048190611cb0565b60405180910390fd5b600081116104cd576040517f08c379a00000000000000000000000000000000000000000000000000000000081526004016104c490611d70565b60405180910390fd5b803073ffffffffffffffffffffffffffffffffffffffff166370a08231336040518263ffffffff1660e01b81526004016105079190611ad4565b60206040518083038186803b15801561051f57600080fd5b505afa158015610533573d6000803e3d6000fd5b505050506040513d601f19601f8201168201806040525081019061055791906117ad565b1015610598576040517f08c379a000000000000000000000000000000000000000000000000000000000815260040161058f90611c10565b60405180910390fd5b6105a23382610f9b565b6000670de0b6b3a7640000600854836105bb9190611eb8565b6105c59190611eb8565b905080600960009054906101000a900473ffffffffffffffffffffffffffffffffffffffff1673ffffffffffffffffffffffffffffffffffffffff166370a08231306040518263ffffffff1660e01b81526004016106239190611ad4565b60206040518083038186803b15801561063b57600080fd5b505afa15801561064f573d6000803e3d6000fd5b505050506040513d601f19601f8201168201806040525081019061067391906117ad565b10156106b4576040517f08c379a00000000000000000000000000000000000000000000000000000000081526004016106ab90611cd0565b60405180910390fd5b6000600960009054906101000a900473ffffffffffffffffffffffffffffffffffffffff1673ffffffffffffffffffffffffffffffffffffffff1663a9059cbb33846040518363ffffffff1660e01b8152600401610713929190611b4f565b602060405180830381600087803b15801561072d57600080fd5b505af1158015610741573d6000803e3d6000fd5b505050506040513d601f19601f820116820180604052508101906107659190611753565b9050806107a7576040517f08c379a000000000000000000000000000000000000000000000000000000000815260040161079e90611bf0565b60405180910390fd5b82600760008282546107b99190611e62565b9250508190555050506107ca610fc2565b50565b6000600254905090565b6000806107e2610d78565b90506107ef858285610fcc565b6107fa858585611058565b60019150509392505050565b600090565b600080610816610d78565b90506108378185856108288589610cda565b6108329190611e62565b610d80565b600191505092915050565b60008060008373ffffffffffffffffffffffffffffffffffffffff1673ffffffffffffffffffffffffffffffffffffffff168152602001908152602001600020549050919050565b60606004805461089990612004565b80601f01602080910402602001604051908101604052809291908181526020018280546108c590612004565b80156109125780601f106108e757610100808354040283529160200191610912565b820191906000526020600020905b8154815290600101906020018083116108f557829003601f168201915b5050505050905090565b600960009054906101000a900473ffffffffffffffffffffffffffffffffffffffff1681565b61094a610f4b565b3373ffffffffffffffffffffffffffffffffffffffff163273ffffffffffffffffffffffffffffffffffffffff16146109b8576040517f08c379a00000000000000000000000000000000000000000000000000000000081526004016109af90611cb0565b60405180910390fd5b600081116109fb576040517f08c379a00000000000000000000000000000000000000000000000000000000081526004016109f290611d70565b60405180910390fd5b600081600854610a0b9190611eb8565b90506000670de0b6b3a764000082610a239190611eb8565b905080600960009054906101000a900473ffffffffffffffffffffffffffffffffffffffff1673ffffffffffffffffffffffffffffffffffffffff1663dd62ed3e33306040518363ffffffff1660e01b8152600401610a83929190611aef565b60206040518083038186803b158015610a9b57600080fd5b505afa158015610aaf573d6000803e3d6000fd5b505050506040513d601f19601f82011682018060405250810190610ad391906117ad565b1015610b14576040517f08c379a0000000000000000000000000000000000000000000000000000000008152600401610b0b90611d10565b60405180910390fd5b6000600960009054906101000a900473ffffffffffffffffffffffffffffffffffffffff1673ffffffffffffffffffffffffffffffffffffffff166323b872dd3330856040518463ffffffff1660e01b8152600401610b7593929190611b18565b602060405180830381600087803b158015610b8f57600080fd5b505af1158015610ba3573d6000803e3d6000fd5b505050506040513d601f19601f82011682018060405250810190610bc79190611753565b905080610c09576040517f08c379a0000000000000000000000000000000000000000000000000000000008152600401610c0090611cf0565b60405180910390fd5b610c1333856112d0565b8360066000828254610c259190611e62565b92505081905550505050610c37610fc2565b50565b600080610c45610d78565b90506000610c538286610cda565b905083811015610c98576040517f08c379a0000000000000000000000000000000000000000000000000000000008152600401610c8f90611dd0565b60405180910390fd5b610ca58286868403610d80565b60019250505092915050565b600080610cbc610d78565b9050610cc9818585611058565b600191505092915050565b60085481565b6000600160008473ffffffffffffffffffffffffffffffffffffffff1673ffffffffffffffffffffffffffffffffffffffff16815260200190815260200160002060008373ffffffffffffffffffffffffffffffffffffffff1673ffffffffffffffffffffffffffffffffffffffff16815260200190815260200160002054905092915050565b6000600754600654610d739190611f12565b905090565b600033905090565b600073ffffffffffffffffffffffffffffffffffffffff168373ffffffffffffffffffffffffffffffffffffffff161415610df0576040517f08c379a0000000000000000000000000000000000000000000000000000000008152600401610de790611d90565b60405180910390fd5b600073ffffffffffffffffffffffffffffffffffffffff168273ffffffffffffffffffffffffffffffffffffffff161415610e60576040517f08c379a0000000000000000000000000000000000000000000000000000000008152600401610e5790611c50565b60405180910390fd5b80600160008573ffffffffffffffffffffffffffffffffffffffff1673ffffffffffffffffffffffffffffffffffffffff16815260200190815260200160002060008473ffffffffffffffffffffffffffffffffffffffff1673ffffffffffffffffffffffffffffffffffffffff168152602001908152602001600020819055508173ffffffffffffffffffffffffffffffffffffffff168373ffffffffffffffffffffffffffffffffffffffff167f8c5be1e5ebec7d5bd14f71427d1e84f3dd0314c0f7b2291e5b200ac8c7c3b92583604051610f3e9190611e10565b60405180910390a3505050565b60026005541415610f91576040517f08c379a0000000000000000000000000000000000000000000000000000000008152600401610f8890611db0565b60405180910390fd5b6002600581905550565b610fa58282611427565b8060076000828254610fb79190611e62565b925050819055505050565b6001600581905550565b6000610fd88484610cda565b90507fffffffffffffffffffffffffffffffffffffffffffffffffffffffffffffffff81146110525781811015611044576040517f08c379a000000000000000000000000000000000000000000000000000000000815260040161103b90611c70565b60405180910390fd5b6110518484848403610d80565b5b50505050565b600073ffffffffffffffffffffffffffffffffffffffff168373ffffffffffffffffffffffffffffffffffffffff1614156110c8576040517f08c379a00000000000000000000000000000000000000000000000000000000081526004016110bf90611d50565b60405180910390fd5b600073ffffffffffffffffffffffffffffffffffffffff168273ffffffffffffffffffffffffffffffffffffffff161415611138576040517f08c379a000000000000000000000000000000000000000000000000000000000815260040161112f90611bd0565b60405180910390fd5b6111438383836115f5565b60008060008573ffffffffffffffffffffffffffffffffffffffff1673ffffffffffffffffffffffffffffffffffffffff168152602001908152602001600020549050818110156111c9576040517f08c379a00000000000000000000000000000000000000000000000000000000081526004016111c090611c90565b60405180910390fd5b8181036000808673ffffffffffffffffffffffffffffffffffffffff1673ffffffffffffffffffffffffffffffffffffffff16815260200190815260200160002081905550816000808573ffffffffffffffffffffffffffffffffffffffff1673ffffffffffffffffffffffffffffffffffffffff168152602001908152602001600020600082825401925050819055508273ffffffffffffffffffffffffffffffffffffffff168473ffffffffffffffffffffffffffffffffffffffff167fddf252ad1be2c89b69c2b068fc378daa952ba7f163c4a11628f55a4df523b3ef846040516112b79190611e10565b60405180910390a36112ca8484846115fa565b50505050565b600073ffffffffffffffffffffffffffffffffffffffff168273ffffffffffffffffffffffffffffffffffffffff161415611340576040517f08c379a000000000000000000000000000000000000000000000000000000000815260040161133790611df0565b60405180910390fd5b61134c600083836115f5565b806002600082825461135e9190611e62565b92505081905550806000808473ffffffffffffffffffffffffffffffffffffffff1673ffffffffffffffffffffffffffffffffffffffff168152602001908152602001600020600082825401925050819055508173ffffffffffffffffffffffffffffffffffffffff16600073ffffffffffffffffffffffffffffffffffffffff167fddf252ad1be2c89b69c2b068fc378daa952ba7f163c4a11628f55a4df523b3ef8360405161140f9190611e10565b60405180910390a3611423600083836115fa565b5050565b600073ffffffffffffffffffffffffffffffffffffffff168273ffffffffffffffffffffffffffffffffffffffff161415611497576040517f08c379a000000000000000000000000000000000000000000000000000000000815260040161148e90611d30565b60405180910390fd5b6114a3826000836115f5565b60008060008473ffffffffffffffffffffffffffffffffffffffff1673ffffffffffffffffffffffffffffffffffffffff16815260200190815260200160002054905081811015611529576040517f08c379a000000000000000000000000000000000000000000000000000000000815260040161152090611c30565b60405180910390fd5b8181036000808573ffffffffffffffffffffffffffffffffffffffff1673ffffffffffffffffffffffffffffffffffffffff1681526020019081526020016000208190555081600260008282540392505081905550600073ffffffffffffffffffffffffffffffffffffffff168373ffffffffffffffffffffffffffffffffffffffff167fddf252ad1be2c89b69c2b068fc378daa952ba7f163c4a11628f55a4df523b3ef846040516115dc9190611e10565b60405180910390a36115f0836000846115fa565b505050565b505050565b505050565b60008135905061160e816124e2565b92915050565b600081519050611623816124f9565b92915050565b60008135905061163881612510565b92915050565b60008151905061164d81612510565b92915050565b60006020828403121561166957611668612094565b5b6000611677848285016115ff565b91505092915050565b6000806040838503121561169757611696612094565b5b60006116a5858286016115ff565b92505060206116b6858286016115ff565b9150509250929050565b6000806000606084860312156116d9576116d8612094565b5b60006116e7868287016115ff565b93505060206116f8868287016115ff565b925050604061170986828701611629565b9150509250925092565b6000806040838503121561172a57611729612094565b5b6000611738858286016115ff565b925050602061174985828601611629565b9150509250929050565b60006020828403121561176957611768612094565b5b600061177784828501611614565b91505092915050565b60006020828403121561179657611795612094565b5b60006117a484828501611629565b91505092915050565b6000602082840312156117c3576117c2612094565b5b60006117d18482850161163e565b91505092915050565b6117e381611f46565b82525050565b6117f281611f58565b82525050565b61180181611f9b565b82525050565b600061181282611e46565b61181c8185611e51565b935061182c818560208601611fd1565b61183581612099565b840191505092915050565b600061184d602383611e51565b9150611858826120aa565b604082019050919050565b6000611870601983611e51565b915061187b826120f9565b602082019050919050565b6000611893601883611e51565b915061189e82612122565b602082019050919050565b60006118b6602283611e51565b91506118c18261214b565b604082019050919050565b60006118d9602283611e51565b91506118e48261219a565b604082019050919050565b60006118fc601d83611e51565b9150611907826121e9565b602082019050919050565b600061191f602683611e51565b915061192a82612212565b604082019050919050565b6000611942601e83611e51565b915061194d82612261565b602082019050919050565b6000611965602483611e51565b91506119708261228a565b604082019050919050565b6000611988601883611e51565b9150611993826122d9565b602082019050919050565b60006119ab601683611e51565b91506119b682612302565b602082019050919050565b60006119ce602183611e51565b91506119d98261232b565b604082019050919050565b60006119f1602583611e51565b91506119fc8261237a565b604082019050919050565b6000611a14601983611e51565b9150611a1f826123c9565b602082019050919050565b6000611a37602483611e51565b9150611a42826123f2565b604082019050919050565b6000611a5a601f83611e51565b9150611a6582612441565b602082019050919050565b6000611a7d602583611e51565b9150611a888261246a565b604082019050919050565b6000611aa0601f83611e51565b9150611aab826124b9565b602082019050919050565b611abf81611f84565b82525050565b611ace81611f8e565b82525050565b6000602082019050611ae960008301846117da565b92915050565b6000604082019050611b0460008301856117da565b611b1160208301846117da565b9392505050565b6000606082019050611b2d60008301866117da565b611b3a60208301856117da565b611b476040830184611ab6565b949350505050565b6000604082019050611b6460008301856117da565b611b716020830184611ab6565b9392505050565b6000602082019050611b8d60008301846117e9565b92915050565b6000602082019050611ba860008301846117f8565b92915050565b60006020820190508181036000830152611bc88184611807565b905092915050565b60006020820190508181036000830152611be981611840565b9050919050565b60006020820190508181036000830152611c0981611863565b9050919050565b60006020820190508181036000830152611c2981611886565b9050919050565b60006020820190508181036000830152611c49816118a9565b9050919050565b60006020820190508181036000830152611c69816118cc565b9050919050565b60006020820190508181036000830152611c89816118ef565b9050919050565b60006020820190508181036000830152611ca981611912565b9050919050565b60006020820190508181036000830152611cc981611935565b9050919050565b60006020820190508181036000830152611ce981611958565b9050919050565b60006020820190508181036000830152611d098161197b565b9050919050565b60006020820190508181036000830152611d298161199e565b9050919050565b60006020820190508181036000830152611d49816119c1565b9050919050565b60006020820190508181036000830152611d69816119e4565b9050919050565b60006020820190508181036000830152611d8981611a07565b9050919050565b60006020820190508181036000830152611da981611a2a565b9050919050565b60006020820190508181036000830152611dc981611a4d565b9050919050565b60006020820190508181036000830152611de981611a70565b9050919050565b60006020820190508181036000830152611e0981611a93565b9050919050565b6000602082019050611e256000830184611ab6565b92915050565b6000602082019050611e406000830184611ac5565b92915050565b600081519050919050565b600082825260208201905092915050565b6000611e6d82611f84565b9150611e7883611f84565b9250827fffffffffffffffffffffffffffffffffffffffffffffffffffffffffffffffff03821115611ead57611eac612036565b5b828201905092915050565b6000611ec382611f84565b9150611ece83611f84565b9250817fffffffffffffffffffffffffffffffffffffffffffffffffffffffffffffffff0483118215151615611f0757611f06612036565b5b828202905092915050565b6000611f1d82611f84565b9150611f2883611f84565b925082821015611f3b57611f3a612036565b5b828203905092915050565b6000611f5182611f64565b9050919050565b60008115159050919050565b600073ffffffffffffffffffffffffffffffffffffffff82169050919050565b6000819050919050565b600060ff82169050919050565b6000611fa682611fad565b9050919050565b6000611fb882611fbf565b9050919050565b6000611fca82611f64565b9050919050565b60005b83811015611fef578082015181840152602081019050611fd4565b83811115611ffe576000848401525b50505050565b6000600282049050600182168061201c57607f821691505b602082108114156120305761202f612065565b5b50919050565b7f4e487b7100000000000000000000000000000000000000000000000000000000600052601160045260246000fd5b7f4e487b7100000000000000000000000000000000000000000000000000000000600052602260045260246000fd5b600080fd5b6000601f19601f8301169050919050565b7f45524332303a207472616e7366657220746f20746865207a65726f206164647260008201527f6573730000000000000000000000000000000000000000000000000000000000602082015250565b7f444f4320546f6b656e207472616e73666572206661696c656400000000000000600082015250565b7f496e73756666696369656e74204c54542062616c616e63650000000000000000600082015250565b7f45524332303a206275726e20616d6f756e7420657863656564732062616c616e60008201527f6365000000000000000000000000000000000000000000000000000000000000602082015250565b7f45524332303a20617070726f766520746f20746865207a65726f20616464726560008201527f7373000000000000000000000000000000000000000000000000000000000000602082015250565b7f45524332303a20696e73756666696369656e7420616c6c6f77616e6365000000600082015250565b7f45524332303a207472616e7366657220616d6f756e742065786365656473206260008201527f616c616e63650000000000000000000000000000000000000000000000000000602082015250565b7f5468652063616c6c657220697320616e6f7468657220636f6e74726163740000600082015250565b7f496e73756666696369656e7420444f432062616c616e636520696e20636f6e7460008201527f7261637400000000000000000000000000000000000000000000000000000000602082015250565b7f446f63546f6b656e207472616e73666572206661696c65640000000000000000600082015250565b7f417070726f766520446f63546f6b656e20666972737400000000000000000000600082015250565b7f45524332303a206275726e2066726f6d20746865207a65726f2061646472657360008201527f7300000000000000000000000000000000000000000000000000000000000000602082015250565b7f45524332303a207472616e736665722066726f6d20746865207a65726f20616460008201527f6472657373000000000000000000000000000000000000000000000000000000602082015250565b7f5175616e74697479206d75737420626520706f73697469766500000000000000600082015250565b7f45524332303a20617070726f76652066726f6d20746865207a65726f2061646460008201527f7265737300000000000000000000000000000000000000000000000000000000602082015250565b7f5265656e7472616e637947756172643a207265656e7472616e742063616c6c00600082015250565b7f45524332303a2064656372656173656420616c6c6f77616e63652062656c6f7760008201527f207a65726f000000000000000000000000000000000000000000000000000000602082015250565b7f45524332303a206d696e7420746f20746865207a65726f206164647265737300600082015250565b6124eb81611f46565b81146124f657600080fd5b50565b61250281611f58565b811461250d57600080fd5b50565b61251981611f84565b811461252457600080fd5b5056fea2646970667358221220606b8a541a754c0d077279446b9839364b0c5cab4a7c7031065c2d5f7c0916e464736f6c63430008070033",
  "linkReferences": {},
  "deployedLinkReferences": {}
}