{
  "_format": "hh-sol-artifact-1",
  "contractName": "Lottery",
  "sourceName": "contracts/Lottery.sol",
  "abi": [
    {
      "inputs": [],
      "name": "sendPrizeToWinner",
      "outputs": [],
      "stateMutability": "nonpayable",
      "type": "function"
    },
    {
      "inputs": [],
      "name": "storeTicket",
      "outputs": [],
      "stateMutability": "nonpayable",
      "type": "function"
    },
    {
      "inputs": [
        {
          "internalType": "uint256",
          "name": "",
          "type": "uint256"
        }
      ],
      "name": "tickets",
      "outputs": [
        {
          "internalType": "contract LottoTickets",
          "name": "",
          "type": "address"
        }
      ],
      "stateMutability": "view",
      "type": "function"
    }
  ],
  "bytecode": "0x608060405234801561001057600080fd5b50610344806100206000396000f3fe608060405234801561001057600080fd5b50600436106100415760003560e01c806301aab26c1461004657806350b4471214610050578063babddaf314610080575b600080fd5b61004e61008a565b005b61006a600480360381019061006591906101be565b6100fa565b604051610077919061021d565b60405180910390f35b610088610139565b005b3373ffffffffffffffffffffffffffffffffffffffff163273ffffffffffffffffffffffffffffffffffffffff16146100f8576040517f08c379a00000000000000000000000000000000000000000000000000000000081526004016100ef90610238565b60405180910390fd5b565b6000818154811061010a57600080fd5b906000526020600020016000915054906101000a900473ffffffffffffffffffffffffffffffffffffffff1681565b3373ffffffffffffffffffffffffffffffffffffffff163273ffffffffffffffffffffffffffffffffffffffff16146101a7576040517f08c379a000000000000000000000000000000000000000000000000000000000815260040161019e90610238565b60405180910390fd5b565b6000813590506101b8816102f7565b92915050565b6000602082840312156101d4576101d36102c9565b5b60006101e2848285016101a9565b91505092915050565b6101f481610293565b82525050565b6000610207601e83610258565b9150610212826102ce565b602082019050919050565b600060208201905061023260008301846101eb565b92915050565b60006020820190508181036000830152610251816101fa565b9050919050565b600082825260208201905092915050565b600073ffffffffffffffffffffffffffffffffffffffff82169050919050565b6000819050919050565b600061029e826102a5565b9050919050565b60006102b0826102b7565b9050919050565b60006102c282610269565b9050919050565b600080fd5b7f5468652063616c6c657220697320616e6f7468657220636f6e74726163740000600082015250565b61030081610289565b811461030b57600080fd5b5056fea2646970667358221220476e54c05fd31a6da1ce59404f7ba2bb214781429a62ed5c05ab480b813bd58064736f6c63430008070033",
  "linkReferences": {},
  "deployedLinkReferences": {}
}